{
	"contracts/Auction.sol": {
		"auctionCreator": {
			"abi": [
				{
					"inputs": [
						{
							"internalType": "uint256",
							"name": "",
							"type": "uint256"
						}
					],
					"name": "auctions",
					"outputs": [
						{
							"internalType": "contract Auction",
							"name": "",
							"type": "address"
						}
					],
					"stateMutability": "view",
					"type": "function"
				},
				{
					"inputs": [],
					"name": "createAuction",
					"outputs": [],
					"stateMutability": "nonpayable",
					"type": "function"
				}
			],
			"devdoc": {
				"kind": "dev",
				"methods": {},
				"version": 1
			},
			"evm": {
				"assembly": "    /* \"contracts/Auction.sol\":132:428  contract auctionCreator{... */\n  mstore(0x40, 0x80)\n  callvalue\n  dup1\n  iszero\n  tag_1\n  jumpi\n  0x00\n  dup1\n  revert\ntag_1:\n  pop\n  dataSize(sub_0)\n  dup1\n  dataOffset(sub_0)\n  0x00\n  codecopy\n  0x00\n  return\nstop\n\nsub_0: assembly {\n        /* \"contracts/Auction.sol\":132:428  contract auctionCreator{... */\n      mstore(0x40, 0x80)\n      callvalue\n      dup1\n      iszero\n      tag_1\n      jumpi\n      0x00\n      dup1\n      revert\n    tag_1:\n      pop\n      jumpi(tag_2, lt(calldatasize, 0x04))\n      shr(0xe0, calldataload(0x00))\n      dup1\n      0x571a26a0\n      eq\n      tag_3\n      jumpi\n      dup1\n      0xf5811447\n      eq\n      tag_4\n      jumpi\n    tag_2:\n      0x00\n      dup1\n      revert\n        /* \"contracts/Auction.sol\":162:187  Auction[] public auctions */\n    tag_3:\n      tag_5\n      0x04\n      dup1\n      calldatasize\n      sub\n      dup2\n      add\n      swap1\n      tag_6\n      swap2\n      swap1\n      tag_7\n      jump\t// in\n    tag_6:\n      tag_8\n      jump\t// in\n    tag_5:\n      mload(0x40)\n      tag_9\n      swap2\n      swap1\n      tag_10\n      jump\t// in\n    tag_9:\n      mload(0x40)\n      dup1\n      swap2\n      sub\n      swap1\n      return\n        /* \"contracts/Auction.sol\":194:425  function createAuction () public {... */\n    tag_4:\n      tag_11\n      tag_12\n      jump\t// in\n    tag_11:\n      stop\n        /* \"contracts/Auction.sol\":162:187  Auction[] public auctions */\n    tag_8:\n      0x00\n      dup2\n      dup2\n      sload\n      dup2\n      lt\n      tag_13\n      jumpi\n      0x00\n      dup1\n      revert\n    tag_13:\n      swap1\n      0x00\n      mstore\n      keccak256(0x00, 0x20)\n      add\n      0x00\n      swap2\n      pop\n      sload\n      swap1\n      0x0100\n      exp\n      swap1\n      div\n      0xffffffffffffffffffffffffffffffffffffffff\n      and\n      dup2\n      jump\t// out\n        /* \"contracts/Auction.sol\":194:425  function createAuction () public {... */\n    tag_12:\n        /* \"contracts/Auction.sol\":337:355  Auction newAuction */\n      0x00\n        /* \"contracts/Auction.sol\":370:380  msg.sender */\n      caller\n        /* \"contracts/Auction.sol\":358:381  new Auction(msg.sender) */\n      mload(0x40)\n      tag_16\n      swap1\n      tag_17\n      jump\t// in\n    tag_16:\n      tag_18\n      swap2\n      swap1\n      tag_19\n      jump\t// in\n    tag_18:\n      mload(0x40)\n      dup1\n      swap2\n      sub\n      swap1\n      0x00\n      create\n      dup1\n      iszero\n      dup1\n      iszero\n      tag_20\n      jumpi\n      returndatasize\n      0x00\n      dup1\n      returndatacopy\n      revert(0x00, returndatasize)\n    tag_20:\n      pop\n        /* \"contracts/Auction.sol\":337:381  Auction newAuction = new Auction(msg.sender) */\n      swap1\n      pop\n        /* \"contracts/Auction.sol\":392:400  auctions */\n      0x00\n        /* \"contracts/Auction.sol\":406:416  newAuction */\n      dup2\n        /* \"contracts/Auction.sol\":392:417  auctions.push(newAuction) */\n      swap1\n      dup1\n      0x01\n      dup2\n      sload\n      add\n      dup1\n      dup3\n      sstore\n      dup1\n      swap2\n      pop\n      pop\n      0x01\n      swap1\n      sub\n      swap1\n      0x00\n      mstore\n      keccak256(0x00, 0x20)\n      add\n      0x00\n      swap1\n      swap2\n      swap1\n      swap2\n      swap1\n      swap2\n      0x0100\n      exp\n      dup2\n      sload\n      dup2\n      0xffffffffffffffffffffffffffffffffffffffff\n      mul\n      not\n      and\n      swap1\n      dup4\n      0xffffffffffffffffffffffffffffffffffffffff\n      and\n      mul\n      or\n      swap1\n      sstore\n      pop\n        /* \"contracts/Auction.sol\":227:425  {... */\n      pop\n        /* \"contracts/Auction.sol\":194:425  function createAuction () public {... */\n      jump\t// out\n    tag_17:\n      dataSize(sub_0)\n      dup1\n      dataOffset(sub_0)\n      dup4\n      codecopy\n      add\n      swap1\n      jump\t// out\n        /* \"#utility.yul\":88:205   */\n    tag_23:\n        /* \"#utility.yul\":197:198   */\n      0x00\n        /* \"#utility.yul\":194:195   */\n      dup1\n        /* \"#utility.yul\":187:199   */\n      revert\n        /* \"#utility.yul\":334:411   */\n    tag_25:\n        /* \"#utility.yul\":371:378   */\n      0x00\n        /* \"#utility.yul\":400:405   */\n      dup2\n        /* \"#utility.yul\":389:405   */\n      swap1\n      pop\n        /* \"#utility.yul\":334:411   */\n      swap2\n      swap1\n      pop\n      jump\t// out\n        /* \"#utility.yul\":417:539   */\n    tag_26:\n        /* \"#utility.yul\":490:514   */\n      tag_42\n        /* \"#utility.yul\":508:513   */\n      dup2\n        /* \"#utility.yul\":490:514   */\n      tag_25\n      jump\t// in\n    tag_42:\n        /* \"#utility.yul\":483:488   */\n      dup2\n        /* \"#utility.yul\":480:515   */\n      eq\n        /* \"#utility.yul\":470:533   */\n      tag_43\n      jumpi\n        /* \"#utility.yul\":529:530   */\n      0x00\n        /* \"#utility.yul\":526:527   */\n      dup1\n        /* \"#utility.yul\":519:531   */\n      revert\n        /* \"#utility.yul\":470:533   */\n    tag_43:\n        /* \"#utility.yul\":417:539   */\n      pop\n      jump\t// out\n        /* \"#utility.yul\":545:684   */\n    tag_27:\n        /* \"#utility.yul\":591:596   */\n      0x00\n        /* \"#utility.yul\":629:635   */\n      dup2\n        /* \"#utility.yul\":616:636   */\n      calldataload\n        /* \"#utility.yul\":607:636   */\n      swap1\n      pop\n        /* \"#utility.yul\":645:678   */\n      tag_45\n        /* \"#utility.yul\":672:677   */\n      dup2\n        /* \"#utility.yul\":645:678   */\n      tag_26\n      jump\t// in\n    tag_45:\n        /* \"#utility.yul\":545:684   */\n      swap3\n      swap2\n      pop\n      pop\n      jump\t// out\n        /* \"#utility.yul\":690:1019   */\n    tag_7:\n        /* \"#utility.yul\":749:755   */\n      0x00\n        /* \"#utility.yul\":798:800   */\n      0x20\n        /* \"#utility.yul\":786:795   */\n      dup3\n        /* \"#utility.yul\":777:784   */\n      dup5\n        /* \"#utility.yul\":773:796   */\n      sub\n        /* \"#utility.yul\":769:801   */\n      slt\n        /* \"#utility.yul\":766:885   */\n      iszero\n      tag_47\n      jumpi\n        /* \"#utility.yul\":804:883   */\n      tag_48\n      tag_23\n      jump\t// in\n    tag_48:\n        /* \"#utility.yul\":766:885   */\n    tag_47:\n        /* \"#utility.yul\":924:925   */\n      0x00\n        /* \"#utility.yul\":949:1002   */\n      tag_49\n        /* \"#utility.yul\":994:1001   */\n      dup5\n        /* \"#utility.yul\":985:991   */\n      dup3\n        /* \"#utility.yul\":974:983   */\n      dup6\n        /* \"#utility.yul\":970:992   */\n      add\n        /* \"#utility.yul\":949:1002   */\n      tag_27\n      jump\t// in\n    tag_49:\n        /* \"#utility.yul\":939:1002   */\n      swap2\n      pop\n        /* \"#utility.yul\":895:1012   */\n      pop\n        /* \"#utility.yul\":690:1019   */\n      swap3\n      swap2\n      pop\n      pop\n      jump\t// out\n        /* \"#utility.yul\":1025:1151   */\n    tag_28:\n        /* \"#utility.yul\":1062:1069   */\n      0x00\n        /* \"#utility.yul\":1102:1144   */\n      0xffffffffffffffffffffffffffffffffffffffff\n        /* \"#utility.yul\":1095:1100   */\n      dup3\n        /* \"#utility.yul\":1091:1145   */\n      and\n        /* \"#utility.yul\":1080:1145   */\n      swap1\n      pop\n        /* \"#utility.yul\":1025:1151   */\n      swap2\n      swap1\n      pop\n      jump\t// out\n        /* \"#utility.yul\":1157:1217   */\n    tag_29:\n        /* \"#utility.yul\":1185:1188   */\n      0x00\n        /* \"#utility.yul\":1206:1211   */\n      dup2\n        /* \"#utility.yul\":1199:1211   */\n      swap1\n      pop\n        /* \"#utility.yul\":1157:1217   */\n      swap2\n      swap1\n      pop\n      jump\t// out\n        /* \"#utility.yul\":1223:1365   */\n    tag_30:\n        /* \"#utility.yul\":1273:1282   */\n      0x00\n        /* \"#utility.yul\":1306:1359   */\n      tag_53\n        /* \"#utility.yul\":1324:1358   */\n      tag_54\n        /* \"#utility.yul\":1333:1357   */\n      tag_55\n        /* \"#utility.yul\":1351:1356   */\n      dup5\n        /* \"#utility.yul\":1333:1357   */\n      tag_28\n      jump\t// in\n    tag_55:\n        /* \"#utility.yul\":1324:1358   */\n      tag_29\n      jump\t// in\n    tag_54:\n        /* \"#utility.yul\":1306:1359   */\n      tag_28\n      jump\t// in\n    tag_53:\n        /* \"#utility.yul\":1293:1359   */\n      swap1\n      pop\n        /* \"#utility.yul\":1223:1365   */\n      swap2\n      swap1\n      pop\n      jump\t// out\n        /* \"#utility.yul\":1371:1497   */\n    tag_31:\n        /* \"#utility.yul\":1421:1430   */\n      0x00\n        /* \"#utility.yul\":1454:1491   */\n      tag_57\n        /* \"#utility.yul\":1485:1490   */\n      dup3\n        /* \"#utility.yul\":1454:1491   */\n      tag_30\n      jump\t// in\n    tag_57:\n        /* \"#utility.yul\":1441:1491   */\n      swap1\n      pop\n        /* \"#utility.yul\":1371:1497   */\n      swap2\n      swap1\n      pop\n      jump\t// out\n        /* \"#utility.yul\":1503:1644   */\n    tag_32:\n        /* \"#utility.yul\":1568:1577   */\n      0x00\n        /* \"#utility.yul\":1601:1638   */\n      tag_59\n        /* \"#utility.yul\":1632:1637   */\n      dup3\n        /* \"#utility.yul\":1601:1638   */\n      tag_31\n      jump\t// in\n    tag_59:\n        /* \"#utility.yul\":1588:1638   */\n      swap1\n      pop\n        /* \"#utility.yul\":1503:1644   */\n      swap2\n      swap1\n      pop\n      jump\t// out\n        /* \"#utility.yul\":1650:1811   */\n    tag_33:\n        /* \"#utility.yul\":1752:1804   */\n      tag_61\n        /* \"#utility.yul\":1798:1803   */\n      dup2\n        /* \"#utility.yul\":1752:1804   */\n      tag_32\n      jump\t// in\n    tag_61:\n        /* \"#utility.yul\":1747:1750   */\n      dup3\n        /* \"#utility.yul\":1740:1805   */\n      mstore\n        /* \"#utility.yul\":1650:1811   */\n      pop\n      pop\n      jump\t// out\n        /* \"#utility.yul\":1817:2069   */\n    tag_10:\n        /* \"#utility.yul\":1925:1929   */\n      0x00\n        /* \"#utility.yul\":1963:1965   */\n      0x20\n        /* \"#utility.yul\":1952:1961   */\n      dup3\n        /* \"#utility.yul\":1948:1966   */\n      add\n        /* \"#utility.yul\":1940:1966   */\n      swap1\n      pop\n        /* \"#utility.yul\":1976:2062   */\n      tag_63\n        /* \"#utility.yul\":2059:2060   */\n      0x00\n        /* \"#utility.yul\":2048:2057   */\n      dup4\n        /* \"#utility.yul\":2044:2061   */\n      add\n        /* \"#utility.yul\":2035:2041   */\n      dup5\n        /* \"#utility.yul\":1976:2062   */\n      tag_33\n      jump\t// in\n    tag_63:\n        /* \"#utility.yul\":1817:2069   */\n      swap3\n      swap2\n      pop\n      pop\n      jump\t// out\n        /* \"#utility.yul\":2075:2171   */\n    tag_34:\n        /* \"#utility.yul\":2112:2119   */\n      0x00\n        /* \"#utility.yul\":2141:2165   */\n      tag_65\n        /* \"#utility.yul\":2159:2164   */\n      dup3\n        /* \"#utility.yul\":2141:2165   */\n      tag_28\n      jump\t// in\n    tag_65:\n        /* \"#utility.yul\":2130:2165   */\n      swap1\n      pop\n        /* \"#utility.yul\":2075:2171   */\n      swap2\n      swap1\n      pop\n      jump\t// out\n        /* \"#utility.yul\":2177:2295   */\n    tag_35:\n        /* \"#utility.yul\":2264:2288   */\n      tag_67\n        /* \"#utility.yul\":2282:2287   */\n      dup2\n        /* \"#utility.yul\":2264:2288   */\n      tag_34\n      jump\t// in\n    tag_67:\n        /* \"#utility.yul\":2259:2262   */\n      dup3\n        /* \"#utility.yul\":2252:2289   */\n      mstore\n        /* \"#utility.yul\":2177:2295   */\n      pop\n      pop\n      jump\t// out\n        /* \"#utility.yul\":2301:2523   */\n    tag_19:\n        /* \"#utility.yul\":2394:2398   */\n      0x00\n        /* \"#utility.yul\":2432:2434   */\n      0x20\n        /* \"#utility.yul\":2421:2430   */\n      dup3\n        /* \"#utility.yul\":2417:2435   */\n      add\n        /* \"#utility.yul\":2409:2435   */\n      swap1\n      pop\n        /* \"#utility.yul\":2445:2516   */\n      tag_69\n        /* \"#utility.yul\":2513:2514   */\n      0x00\n        /* \"#utility.yul\":2502:2511   */\n      dup4\n        /* \"#utility.yul\":2498:2515   */\n      add\n        /* \"#utility.yul\":2489:2495   */\n      dup5\n        /* \"#utility.yul\":2445:2516   */\n      tag_35\n      jump\t// in\n    tag_69:\n        /* \"#utility.yul\":2301:2523   */\n      swap3\n      swap2\n      pop\n      pop\n      jump\t// out\n    stop\n\n    sub_0: assembly {\n            /* \"contracts/Auction.sol\":436:3965  contract Auction {... */\n          mstore(0x40, 0x80)\n            /* \"contracts/Auction.sol\":946:1311  constructor(address externallyOwnedAccount) {... */\n          callvalue\n          dup1\n          iszero\n          tag_1\n          jumpi\n          0x00\n          dup1\n          revert\n        tag_1:\n          pop\n          mload(0x40)\n          sub(codesize, bytecodeSize)\n          dup1\n          bytecodeSize\n          dup4\n          codecopy\n          dup2\n          dup2\n          add\n          0x40\n          mstore\n          dup2\n          add\n          swap1\n          tag_2\n          swap2\n          swap1\n          tag_3\n          jump\t// in\n        tag_2:\n            /* \"contracts/Auction.sol\":1017:1039  externallyOwnedAccount */\n          dup1\n            /* \"contracts/Auction.sol\":1001:1006  owner */\n          0x00\n          dup1\n            /* \"contracts/Auction.sol\":1001:1040  owner = payable(externallyOwnedAccount) */\n          0x0100\n          exp\n          dup2\n          sload\n          dup2\n          0xffffffffffffffffffffffffffffffffffffffff\n          mul\n          not\n          and\n          swap1\n          dup4\n          0xffffffffffffffffffffffffffffffffffffffff\n          and\n          mul\n          or\n          swap1\n          sstore\n          pop\n            /* \"contracts/Auction.sol\":1066:1079  State.Running */\n          0x01\n            /* \"contracts/Auction.sol\":1051:1063  auctionState */\n          0x04\n          0x00\n            /* \"contracts/Auction.sol\":1051:1079  auctionState = State.Running */\n          0x0100\n          exp\n          dup2\n          sload\n          dup2\n          0xff\n          mul\n          not\n          and\n          swap1\n          dup4\n          0x03\n          dup2\n          gt\n          iszero\n          tag_6\n          jumpi\n          tag_7\n          tag_8\n          jump\t// in\n        tag_7:\n        tag_6:\n          mul\n          or\n          swap1\n          sstore\n          pop\n            /* \"contracts/Auction.sol\":1103:1115  block.number */\n          number\n            /* \"contracts/Auction.sol\":1090:1100  startBlock */\n          0x01\n            /* \"contracts/Auction.sol\":1090:1115  startBlock = block.number */\n          dup2\n          swap1\n          sstore\n          pop\n            /* \"contracts/Auction.sol\":1244:1249  40320 */\n          0x9d80\n            /* \"contracts/Auction.sol\":1231:1241  startBlock */\n          sload(0x01)\n            /* \"contracts/Auction.sol\":1231:1249  startBlock + 40320 */\n          tag_9\n          swap2\n          swap1\n          tag_10\n          jump\t// in\n        tag_9:\n            /* \"contracts/Auction.sol\":1220:1228  endBlock */\n          0x02\n            /* \"contracts/Auction.sol\":1220:1249  endBlock = startBlock + 40320 */\n          dup2\n          swap1\n          sstore\n          pop\n            /* \"contracts/Auction.sol\":1261:1274  ipfsHash = \"\" */\n          mload(0x40)\n          dup1\n          0x20\n          add\n          0x40\n          mstore\n          dup1\n          0x00\n          dup2\n          mstore\n          pop\n            /* \"contracts/Auction.sol\":1261:1269  ipfsHash */\n          0x03\n            /* \"contracts/Auction.sol\":1261:1274  ipfsHash = \"\" */\n          swap1\n          dup1\n          mload\n          swap1\n          0x20\n          add\n          swap1\n          tag_11\n          swap3\n          swap2\n          swap1\n          tag_12\n          jump\t// in\n        tag_11:\n          pop\n            /* \"contracts/Auction.sol\":1300:1303  100 */\n          0x64\n            /* \"contracts/Auction.sol\":1285:1297  bidIncrement */\n          0x08\n            /* \"contracts/Auction.sol\":1285:1303  bidIncrement = 100 */\n          dup2\n          swap1\n          sstore\n          pop\n            /* \"contracts/Auction.sol\":946:1311  constructor(address externallyOwnedAccount) {... */\n          pop\n            /* \"contracts/Auction.sol\":436:3965  contract Auction {... */\n          jump(tag_13)\n        tag_12:\n          dup3\n          dup1\n          sload\n          tag_14\n          swap1\n          tag_15\n          jump\t// in\n        tag_14:\n          swap1\n          0x00\n          mstore\n          keccak256(0x00, 0x20)\n          swap1\n          0x1f\n          add\n          0x20\n          swap1\n          div\n          dup2\n          add\n          swap3\n          dup3\n          tag_17\n          jumpi\n          0x00\n          dup6\n          sstore\n          jump(tag_16)\n        tag_17:\n          dup3\n          0x1f\n          lt\n          tag_18\n          jumpi\n          dup1\n          mload\n          not(0xff)\n          and\n          dup4\n          dup1\n          add\n          or\n          dup6\n          sstore\n          jump(tag_16)\n        tag_18:\n          dup3\n          dup1\n          add\n          0x01\n          add\n          dup6\n          sstore\n          dup3\n          iszero\n          tag_16\n          jumpi\n          swap2\n          dup3\n          add\n        tag_19:\n          dup3\n          dup2\n          gt\n          iszero\n          tag_20\n          jumpi\n          dup3\n          mload\n          dup3\n          sstore\n          swap2\n          0x20\n          add\n          swap2\n          swap1\n          0x01\n          add\n          swap1\n          jump(tag_19)\n        tag_20:\n        tag_16:\n          pop\n          swap1\n          pop\n          tag_21\n          swap2\n          swap1\n          tag_22\n          jump\t// in\n        tag_21:\n          pop\n          swap1\n          jump\t// out\n        tag_22:\n        tag_23:\n          dup1\n          dup3\n          gt\n          iszero\n          tag_24\n          jumpi\n          0x00\n          dup2\n          0x00\n          swap1\n          sstore\n          pop\n          0x01\n          add\n          jump(tag_23)\n        tag_24:\n          pop\n          swap1\n          jump\t// out\n            /* \"#utility.yul\":88:205   */\n        tag_26:\n            /* \"#utility.yul\":197:198   */\n          0x00\n            /* \"#utility.yul\":194:195   */\n          dup1\n            /* \"#utility.yul\":187:199   */\n          revert\n            /* \"#utility.yul\":334:460   */\n        tag_28:\n            /* \"#utility.yul\":371:378   */\n          0x00\n            /* \"#utility.yul\":411:453   */\n          0xffffffffffffffffffffffffffffffffffffffff\n            /* \"#utility.yul\":404:409   */\n          dup3\n            /* \"#utility.yul\":400:454   */\n          and\n            /* \"#utility.yul\":389:454   */\n          swap1\n          pop\n            /* \"#utility.yul\":334:460   */\n          swap2\n          swap1\n          pop\n          jump\t// out\n            /* \"#utility.yul\":466:562   */\n        tag_29:\n            /* \"#utility.yul\":503:510   */\n          0x00\n            /* \"#utility.yul\":532:556   */\n          tag_41\n            /* \"#utility.yul\":550:555   */\n          dup3\n            /* \"#utility.yul\":532:556   */\n          tag_28\n          jump\t// in\n        tag_41:\n            /* \"#utility.yul\":521:556   */\n          swap1\n          pop\n            /* \"#utility.yul\":466:562   */\n          swap2\n          swap1\n          pop\n          jump\t// out\n            /* \"#utility.yul\":568:690   */\n        tag_30:\n            /* \"#utility.yul\":641:665   */\n          tag_43\n            /* \"#utility.yul\":659:664   */\n          dup2\n            /* \"#utility.yul\":641:665   */\n          tag_29\n          jump\t// in\n        tag_43:\n            /* \"#utility.yul\":634:639   */\n          dup2\n            /* \"#utility.yul\":631:666   */\n          eq\n            /* \"#utility.yul\":621:684   */\n          tag_44\n          jumpi\n            /* \"#utility.yul\":680:681   */\n          0x00\n            /* \"#utility.yul\":677:678   */\n          dup1\n            /* \"#utility.yul\":670:682   */\n          revert\n            /* \"#utility.yul\":621:684   */\n        tag_44:\n            /* \"#utility.yul\":568:690   */\n          pop\n          jump\t// out\n            /* \"#utility.yul\":696:839   */\n        tag_31:\n            /* \"#utility.yul\":753:758   */\n          0x00\n            /* \"#utility.yul\":784:790   */\n          dup2\n            /* \"#utility.yul\":778:791   */\n          mload\n            /* \"#utility.yul\":769:791   */\n          swap1\n          pop\n            /* \"#utility.yul\":800:833   */\n          tag_46\n            /* \"#utility.yul\":827:832   */\n          dup2\n            /* \"#utility.yul\":800:833   */\n          tag_30\n          jump\t// in\n        tag_46:\n            /* \"#utility.yul\":696:839   */\n          swap3\n          swap2\n          pop\n          pop\n          jump\t// out\n            /* \"#utility.yul\":845:1196   */\n        tag_3:\n            /* \"#utility.yul\":915:921   */\n          0x00\n            /* \"#utility.yul\":964:966   */\n          0x20\n            /* \"#utility.yul\":952:961   */\n          dup3\n            /* \"#utility.yul\":943:950   */\n          dup5\n            /* \"#utility.yul\":939:962   */\n          sub\n            /* \"#utility.yul\":935:967   */\n          slt\n            /* \"#utility.yul\":932:1051   */\n          iszero\n          tag_48\n          jumpi\n            /* \"#utility.yul\":970:1049   */\n          tag_49\n          tag_26\n          jump\t// in\n        tag_49:\n            /* \"#utility.yul\":932:1051   */\n        tag_48:\n            /* \"#utility.yul\":1090:1091   */\n          0x00\n            /* \"#utility.yul\":1115:1179   */\n          tag_50\n            /* \"#utility.yul\":1171:1178   */\n          dup5\n            /* \"#utility.yul\":1162:1168   */\n          dup3\n            /* \"#utility.yul\":1151:1160   */\n          dup6\n            /* \"#utility.yul\":1147:1169   */\n          add\n            /* \"#utility.yul\":1115:1179   */\n          tag_31\n          jump\t// in\n        tag_50:\n            /* \"#utility.yul\":1105:1179   */\n          swap2\n          pop\n            /* \"#utility.yul\":1061:1189   */\n          pop\n            /* \"#utility.yul\":845:1196   */\n          swap3\n          swap2\n          pop\n          pop\n          jump\t// out\n            /* \"#utility.yul\":1202:1382   */\n        tag_8:\n            /* \"#utility.yul\":1250:1327   */\n          0x4e487b7100000000000000000000000000000000000000000000000000000000\n            /* \"#utility.yul\":1247:1248   */\n          0x00\n            /* \"#utility.yul\":1240:1328   */\n          mstore\n            /* \"#utility.yul\":1347:1351   */\n          0x21\n            /* \"#utility.yul\":1344:1345   */\n          0x04\n            /* \"#utility.yul\":1337:1352   */\n          mstore\n            /* \"#utility.yul\":1371:1375   */\n          0x24\n            /* \"#utility.yul\":1368:1369   */\n          0x00\n            /* \"#utility.yul\":1361:1376   */\n          revert\n            /* \"#utility.yul\":1388:1465   */\n        tag_32:\n            /* \"#utility.yul\":1425:1432   */\n          0x00\n            /* \"#utility.yul\":1454:1459   */\n          dup2\n            /* \"#utility.yul\":1443:1459   */\n          swap1\n          pop\n            /* \"#utility.yul\":1388:1465   */\n          swap2\n          swap1\n          pop\n          jump\t// out\n            /* \"#utility.yul\":1471:1651   */\n        tag_33:\n            /* \"#utility.yul\":1519:1596   */\n          0x4e487b7100000000000000000000000000000000000000000000000000000000\n            /* \"#utility.yul\":1516:1517   */\n          0x00\n            /* \"#utility.yul\":1509:1597   */\n          mstore\n            /* \"#utility.yul\":1616:1620   */\n          0x11\n            /* \"#utility.yul\":1613:1614   */\n          0x04\n            /* \"#utility.yul\":1606:1621   */\n          mstore\n            /* \"#utility.yul\":1640:1644   */\n          0x24\n            /* \"#utility.yul\":1637:1638   */\n          0x00\n            /* \"#utility.yul\":1630:1645   */\n          revert\n            /* \"#utility.yul\":1657:1962   */\n        tag_10:\n            /* \"#utility.yul\":1697:1700   */\n          0x00\n            /* \"#utility.yul\":1716:1736   */\n          tag_55\n            /* \"#utility.yul\":1734:1735   */\n          dup3\n            /* \"#utility.yul\":1716:1736   */\n          tag_32\n          jump\t// in\n        tag_55:\n            /* \"#utility.yul\":1711:1736   */\n          swap2\n          pop\n            /* \"#utility.yul\":1750:1770   */\n          tag_56\n            /* \"#utility.yul\":1768:1769   */\n          dup4\n            /* \"#utility.yul\":1750:1770   */\n          tag_32\n          jump\t// in\n        tag_56:\n            /* \"#utility.yul\":1745:1770   */\n          swap3\n          pop\n            /* \"#utility.yul\":1904:1905   */\n          dup3\n            /* \"#utility.yul\":1836:1902   */\n          0xffffffffffffffffffffffffffffffffffffffffffffffffffffffffffffffff\n            /* \"#utility.yul\":1832:1906   */\n          sub\n            /* \"#utility.yul\":1829:1830   */\n          dup3\n            /* \"#utility.yul\":1826:1907   */\n          gt\n            /* \"#utility.yul\":1823:1930   */\n          iszero\n          tag_57\n          jumpi\n            /* \"#utility.yul\":1910:1928   */\n          tag_58\n          tag_33\n          jump\t// in\n        tag_58:\n            /* \"#utility.yul\":1823:1930   */\n        tag_57:\n            /* \"#utility.yul\":1954:1955   */\n          dup3\n            /* \"#utility.yul\":1951:1952   */\n          dup3\n            /* \"#utility.yul\":1947:1956   */\n          add\n            /* \"#utility.yul\":1940:1956   */\n          swap1\n          pop\n            /* \"#utility.yul\":1657:1962   */\n          swap3\n          swap2\n          pop\n          pop\n          jump\t// out\n            /* \"#utility.yul\":1968:2148   */\n        tag_34:\n            /* \"#utility.yul\":2016:2093   */\n          0x4e487b7100000000000000000000000000000000000000000000000000000000\n            /* \"#utility.yul\":2013:2014   */\n          0x00\n            /* \"#utility.yul\":2006:2094   */\n          mstore\n            /* \"#utility.yul\":2113:2117   */\n          0x22\n            /* \"#utility.yul\":2110:2111   */\n          0x04\n            /* \"#utility.yul\":2103:2118   */\n          mstore\n            /* \"#utility.yul\":2137:2141   */\n          0x24\n            /* \"#utility.yul\":2134:2135   */\n          0x00\n            /* \"#utility.yul\":2127:2142   */\n          revert\n            /* \"#utility.yul\":2154:2474   */\n        tag_15:\n            /* \"#utility.yul\":2198:2204   */\n          0x00\n            /* \"#utility.yul\":2235:2236   */\n          0x02\n            /* \"#utility.yul\":2229:2233   */\n          dup3\n            /* \"#utility.yul\":2225:2237   */\n          div\n            /* \"#utility.yul\":2215:2237   */\n          swap1\n          pop\n            /* \"#utility.yul\":2282:2283   */\n          0x01\n            /* \"#utility.yul\":2276:2280   */\n          dup3\n            /* \"#utility.yul\":2272:2284   */\n          and\n            /* \"#utility.yul\":2303:2321   */\n          dup1\n            /* \"#utility.yul\":2293:2374   */\n          tag_61\n          jumpi\n            /* \"#utility.yul\":2359:2363   */\n          0x7f\n            /* \"#utility.yul\":2351:2357   */\n          dup3\n            /* \"#utility.yul\":2347:2364   */\n          and\n            /* \"#utility.yul\":2337:2364   */\n          swap2\n          pop\n            /* \"#utility.yul\":2293:2374   */\n        tag_61:\n            /* \"#utility.yul\":2421:2423   */\n          0x20\n            /* \"#utility.yul\":2413:2419   */\n          dup3\n            /* \"#utility.yul\":2410:2424   */\n          lt\n            /* \"#utility.yul\":2390:2408   */\n          dup2\n            /* \"#utility.yul\":2387:2425   */\n          sub\n            /* \"#utility.yul\":2384:2468   */\n          tag_62\n          jumpi\n            /* \"#utility.yul\":2440:2458   */\n          tag_63\n          tag_34\n          jump\t// in\n        tag_63:\n            /* \"#utility.yul\":2384:2468   */\n        tag_62:\n            /* \"#utility.yul\":2205:2474   */\n          pop\n            /* \"#utility.yul\":2154:2474   */\n          swap2\n          swap1\n          pop\n          jump\t// out\n            /* \"contracts/Auction.sol\":436:3965  contract Auction {... */\n        tag_13:\n          dataSize(sub_0)\n          dup1\n          dataOffset(sub_0)\n          0x00\n          codecopy\n          0x00\n          return\n        stop\n\n        sub_0: assembly {\n                /* \"contracts/Auction.sol\":436:3965  contract Auction {... */\n              mstore(0x40, 0x80)\n              jumpi(tag_1, lt(calldatasize, 0x04))\n              shr(0xe0, calldataload(0x00))\n              dup1\n              0x8fa8b790\n              gt\n              tag_13\n              jumpi\n              dup1\n              0x8fa8b790\n              eq\n              tag_7\n              jumpi\n              dup1\n              0x91f90157\n              eq\n              tag_8\n              jumpi\n              dup1\n              0xc623674f\n              eq\n              tag_9\n              jumpi\n              dup1\n              0xecfc7ecc\n              eq\n              tag_10\n              jumpi\n              dup1\n              0xf5b56c56\n              eq\n              tag_11\n              jumpi\n              dup1\n              0xf77282ab\n              eq\n              tag_12\n              jumpi\n              jump(tag_1)\n            tag_13:\n              dup1\n              0x083c6323\n              eq\n              tag_2\n              jumpi\n              dup1\n              0x48cd4cb1\n              eq\n              tag_3\n              jumpi\n              dup1\n              0x62ea82db\n              eq\n              tag_4\n              jumpi\n              dup1\n              0x7fb45099\n              eq\n              tag_5\n              jumpi\n              dup1\n              0x8da5cb5b\n              eq\n              tag_6\n              jumpi\n            tag_1:\n              0x00\n              dup1\n              revert\n                /* \"contracts/Auction.sol\":525:545  uint public endBlock */\n            tag_2:\n              callvalue\n              dup1\n              iszero\n              tag_14\n              jumpi\n              0x00\n              dup1\n              revert\n            tag_14:\n              pop\n              tag_15\n              tag_16\n              jump\t// in\n            tag_15:\n              mload(0x40)\n              tag_17\n              swap2\n              swap1\n              tag_18\n              jump\t// in\n            tag_17:\n              mload(0x40)\n              dup1\n              swap2\n              sub\n              swap1\n              return\n                /* \"contracts/Auction.sol\":495:517  uint public startBlock */\n            tag_3:\n              callvalue\n              dup1\n              iszero\n              tag_19\n              jumpi\n              0x00\n              dup1\n              revert\n            tag_19:\n              pop\n              tag_20\n              tag_21\n              jump\t// in\n            tag_20:\n              mload(0x40)\n              tag_22\n              swap2\n              swap1\n              tag_18\n              jump\t// in\n            tag_22:\n              mload(0x40)\n              dup1\n              swap2\n              sub\n              swap1\n              return\n                /* \"contracts/Auction.sol\":745:781  mapping(address => uint) public bids */\n            tag_4:\n              callvalue\n              dup1\n              iszero\n              tag_23\n              jumpi\n              0x00\n              dup1\n              revert\n            tag_23:\n              pop\n              tag_24\n              0x04\n              dup1\n              calldatasize\n              sub\n              dup2\n              add\n              swap1\n              tag_25\n              swap2\n              swap1\n              tag_26\n              jump\t// in\n            tag_25:\n              tag_27\n              jump\t// in\n            tag_24:\n              mload(0x40)\n              tag_28\n              swap2\n              swap1\n              tag_18\n              jump\t// in\n            tag_28:\n              mload(0x40)\n              dup1\n              swap2\n              sub\n              swap1\n              return\n                /* \"contracts/Auction.sol\":633:658  State public auctionState */\n            tag_5:\n              callvalue\n              dup1\n              iszero\n              tag_29\n              jumpi\n              0x00\n              dup1\n              revert\n            tag_29:\n              pop\n              tag_30\n              tag_31\n              jump\t// in\n            tag_30:\n              mload(0x40)\n              tag_32\n              swap2\n              swap1\n              tag_33\n              jump\t// in\n            tag_32:\n              mload(0x40)\n              dup1\n              swap2\n              sub\n              swap1\n              return\n                /* \"contracts/Auction.sol\":460:488  address payable public owner */\n            tag_6:\n              callvalue\n              dup1\n              iszero\n              tag_34\n              jumpi\n              0x00\n              dup1\n              revert\n            tag_34:\n              pop\n              tag_35\n              tag_36\n              jump\t// in\n            tag_35:\n              mload(0x40)\n              tag_37\n              swap2\n              swap1\n              tag_38\n              jump\t// in\n            tag_37:\n              mload(0x40)\n              dup1\n              swap2\n              sub\n              swap1\n              return\n                /* \"contracts/Auction.sol\":2782:2872  function cancelAuction() public onlyOwner{... */\n            tag_7:\n              callvalue\n              dup1\n              iszero\n              tag_39\n              jumpi\n              0x00\n              dup1\n              revert\n            tag_39:\n              pop\n              tag_40\n              tag_41\n              jump\t// in\n            tag_40:\n              stop\n                /* \"contracts/Auction.sol\":701:737  address payable public highestBidder */\n            tag_8:\n              callvalue\n              dup1\n              iszero\n              tag_42\n              jumpi\n              0x00\n              dup1\n              revert\n            tag_42:\n              pop\n              tag_43\n              tag_44\n              jump\t// in\n            tag_43:\n              mload(0x40)\n              tag_45\n              swap2\n              swap1\n              tag_38\n              jump\t// in\n            tag_45:\n              mload(0x40)\n              dup1\n              swap2\n              sub\n              swap1\n              return\n                /* \"contracts/Auction.sol\":552:574  string public ipfsHash */\n            tag_9:\n              callvalue\n              dup1\n              iszero\n              tag_46\n              jumpi\n              0x00\n              dup1\n              revert\n            tag_46:\n              pop\n              tag_47\n              tag_48\n              jump\t// in\n            tag_47:\n              mload(0x40)\n              tag_49\n              swap2\n              swap1\n              tag_50\n              jump\t// in\n            tag_49:\n              mload(0x40)\n              dup1\n              swap2\n              sub\n              swap1\n              return\n                /* \"contracts/Auction.sol\":1990:2735  function placeBid() public payable notOwner afterStart beforeEnd {... */\n            tag_10:\n              tag_51\n              tag_52\n              jump\t// in\n            tag_51:\n              stop\n                /* \"contracts/Auction.sol\":665:694  uint public highestBindingBid */\n            tag_11:\n              callvalue\n              dup1\n              iszero\n              tag_53\n              jumpi\n              0x00\n              dup1\n              revert\n            tag_53:\n              pop\n              tag_54\n              tag_55\n              jump\t// in\n            tag_54:\n              mload(0x40)\n              tag_56\n              swap2\n              swap1\n              tag_18\n              jump\t// in\n            tag_56:\n              mload(0x40)\n              dup1\n              swap2\n              sub\n              swap1\n              return\n                /* \"contracts/Auction.sol\":2880:3962  function finalizeAuction() public {... */\n            tag_12:\n              callvalue\n              dup1\n              iszero\n              tag_57\n              jumpi\n              0x00\n              dup1\n              revert\n            tag_57:\n              pop\n              tag_58\n              tag_59\n              jump\t// in\n            tag_58:\n              stop\n                /* \"contracts/Auction.sol\":525:545  uint public endBlock */\n            tag_16:\n              sload(0x02)\n              dup2\n              jump\t// out\n                /* \"contracts/Auction.sol\":495:517  uint public startBlock */\n            tag_21:\n              sload(0x01)\n              dup2\n              jump\t// out\n                /* \"contracts/Auction.sol\":745:781  mapping(address => uint) public bids */\n            tag_27:\n              mstore(0x20, 0x07)\n              dup1\n              0x00\n              mstore\n              keccak256(0x00, 0x40)\n              0x00\n              swap2\n              pop\n              swap1\n              pop\n              sload\n              dup2\n              jump\t// out\n                /* \"contracts/Auction.sol\":633:658  State public auctionState */\n            tag_31:\n              0x04\n              0x00\n              swap1\n              sload\n              swap1\n              0x0100\n              exp\n              swap1\n              div\n              0xff\n              and\n              dup2\n              jump\t// out\n                /* \"contracts/Auction.sol\":460:488  address payable public owner */\n            tag_36:\n              0x00\n              dup1\n              sload\n              swap1\n              0x0100\n              exp\n              swap1\n              div\n              0xffffffffffffffffffffffffffffffffffffffff\n              and\n              dup2\n              jump\t// out\n                /* \"contracts/Auction.sol\":2782:2872  function cancelAuction() public onlyOwner{... */\n            tag_41:\n                /* \"contracts/Auction.sol\":1645:1650  owner */\n              0x00\n              dup1\n              sload\n              swap1\n              0x0100\n              exp\n              swap1\n              div\n              0xffffffffffffffffffffffffffffffffffffffff\n              and\n                /* \"contracts/Auction.sol\":1631:1650  msg.sender == owner */\n              0xffffffffffffffffffffffffffffffffffffffff\n              and\n                /* \"contracts/Auction.sol\":1631:1641  msg.sender */\n              caller\n                /* \"contracts/Auction.sol\":1631:1650  msg.sender == owner */\n              0xffffffffffffffffffffffffffffffffffffffff\n              and\n              eq\n                /* \"contracts/Auction.sol\":1623:1651  require(msg.sender == owner) */\n              tag_61\n              jumpi\n              0x00\n              dup1\n              revert\n            tag_61:\n                /* \"contracts/Auction.sol\":2849:2863  State.Canceled */\n              0x03\n                /* \"contracts/Auction.sol\":2834:2846  auctionState */\n              0x04\n              0x00\n                /* \"contracts/Auction.sol\":2834:2863  auctionState = State.Canceled */\n              0x0100\n              exp\n              dup2\n              sload\n              dup2\n              0xff\n              mul\n              not\n              and\n              swap1\n              dup4\n              0x03\n              dup2\n              gt\n              iszero\n              tag_63\n              jumpi\n              tag_64\n              tag_65\n              jump\t// in\n            tag_64:\n            tag_63:\n              mul\n              or\n              swap1\n              sstore\n              pop\n                /* \"contracts/Auction.sol\":2782:2872  function cancelAuction() public onlyOwner{... */\n              jump\t// out\n                /* \"contracts/Auction.sol\":701:737  address payable public highestBidder */\n            tag_44:\n              0x06\n              0x00\n              swap1\n              sload\n              swap1\n              0x0100\n              exp\n              swap1\n              div\n              0xffffffffffffffffffffffffffffffffffffffff\n              and\n              dup2\n              jump\t// out\n                /* \"contracts/Auction.sol\":552:574  string public ipfsHash */\n            tag_48:\n              0x03\n              dup1\n              sload\n              tag_66\n              swap1\n              tag_67\n              jump\t// in\n            tag_66:\n              dup1\n              0x1f\n              add\n              0x20\n              dup1\n              swap2\n              div\n              mul\n              0x20\n              add\n              mload(0x40)\n              swap1\n              dup2\n              add\n              0x40\n              mstore\n              dup1\n              swap3\n              swap2\n              swap1\n              dup2\n              dup2\n              mstore\n              0x20\n              add\n              dup3\n              dup1\n              sload\n              tag_68\n              swap1\n              tag_67\n              jump\t// in\n            tag_68:\n              dup1\n              iszero\n              tag_69\n              jumpi\n              dup1\n              0x1f\n              lt\n              tag_70\n              jumpi\n              0x0100\n              dup1\n              dup4\n              sload\n              div\n              mul\n              dup4\n              mstore\n              swap2\n              0x20\n              add\n              swap2\n              jump(tag_69)\n            tag_70:\n              dup3\n              add\n              swap2\n              swap1\n              0x00\n              mstore\n              keccak256(0x00, 0x20)\n              swap1\n            tag_71:\n              dup2\n              sload\n              dup2\n              mstore\n              swap1\n              0x01\n              add\n              swap1\n              0x20\n              add\n              dup1\n              dup4\n              gt\n              tag_71\n              jumpi\n              dup3\n              swap1\n              sub\n              0x1f\n              and\n              dup3\n              add\n              swap2\n            tag_69:\n              pop\n              pop\n              pop\n              pop\n              pop\n              dup2\n              jump\t// out\n                /* \"contracts/Auction.sol\":1990:2735  function placeBid() public payable notOwner afterStart beforeEnd {... */\n            tag_52:\n                /* \"contracts/Auction.sol\":1372:1377  owner */\n              0x00\n              dup1\n              sload\n              swap1\n              0x0100\n              exp\n              swap1\n              div\n              0xffffffffffffffffffffffffffffffffffffffff\n              and\n                /* \"contracts/Auction.sol\":1358:1377  msg.sender != owner */\n              0xffffffffffffffffffffffffffffffffffffffff\n              and\n                /* \"contracts/Auction.sol\":1358:1368  msg.sender */\n              caller\n                /* \"contracts/Auction.sol\":1358:1377  msg.sender != owner */\n              0xffffffffffffffffffffffffffffffffffffffff\n              and\n              sub\n                /* \"contracts/Auction.sol\":1349:1378  require (msg.sender != owner) */\n              tag_73\n              jumpi\n              0x00\n              dup1\n              revert\n            tag_73:\n                /* \"contracts/Auction.sol\":1464:1474  startBlock */\n              sload(0x01)\n                /* \"contracts/Auction.sol\":1448:1460  block.number */\n              number\n                /* \"contracts/Auction.sol\":1448:1474  block.number >= startBlock */\n              lt\n              iszero\n                /* \"contracts/Auction.sol\":1440:1475  require(block.number >= startBlock) */\n              tag_75\n              jumpi\n              0x00\n              dup1\n              revert\n            tag_75:\n                /* \"contracts/Auction.sol\":1557:1565  endBlock */\n              sload(0x02)\n                /* \"contracts/Auction.sol\":1541:1553  block.number */\n              number\n                /* \"contracts/Auction.sol\":1541:1565  block.number <= endBlock */\n              gt\n              iszero\n                /* \"contracts/Auction.sol\":1533:1566  require(block.number <= endBlock) */\n              tag_77\n              jumpi\n              0x00\n              dup1\n              revert\n            tag_77:\n                /* \"contracts/Auction.sol\":2090:2103  State.Running */\n              0x01\n                /* \"contracts/Auction.sol\":2074:2103  auctionState == State.Running */\n              0x03\n              dup2\n              gt\n              iszero\n              tag_79\n              jumpi\n              tag_80\n              tag_65\n              jump\t// in\n            tag_80:\n            tag_79:\n                /* \"contracts/Auction.sol\":2074:2086  auctionState */\n              0x04\n              0x00\n              swap1\n              sload\n              swap1\n              0x0100\n              exp\n              swap1\n              div\n              0xff\n              and\n                /* \"contracts/Auction.sol\":2074:2103  auctionState == State.Running */\n              0x03\n              dup2\n              gt\n              iszero\n              tag_81\n              jumpi\n              tag_82\n              tag_65\n              jump\t// in\n            tag_82:\n            tag_81:\n              eq\n                /* \"contracts/Auction.sol\":2066:2104  require(auctionState == State.Running) */\n              tag_83\n              jumpi\n              0x00\n              dup1\n              revert\n            tag_83:\n                /* \"contracts/Auction.sol\":2136:2139  100 */\n              0x64\n                /* \"contracts/Auction.sol\":2123:2132  msg.value */\n              callvalue\n                /* \"contracts/Auction.sol\":2123:2139  msg.value >= 100 */\n              lt\n              iszero\n                /* \"contracts/Auction.sol\":2115:2140  require(msg.value >= 100) */\n              tag_84\n              jumpi\n              0x00\n              dup1\n              revert\n            tag_84:\n                /* \"contracts/Auction.sol\":2151:2166  uint currentBid */\n              0x00\n                /* \"contracts/Auction.sol\":2188:2197  msg.value */\n              callvalue\n                /* \"contracts/Auction.sol\":2169:2173  bids */\n              0x07\n                /* \"contracts/Auction.sol\":2169:2185  bids[msg.sender] */\n              0x00\n                /* \"contracts/Auction.sol\":2174:2184  msg.sender */\n              caller\n                /* \"contracts/Auction.sol\":2169:2185  bids[msg.sender] */\n              0xffffffffffffffffffffffffffffffffffffffff\n              and\n              0xffffffffffffffffffffffffffffffffffffffff\n              and\n              dup2\n              mstore\n              0x20\n              add\n              swap1\n              dup2\n              mstore\n              0x20\n              add\n              0x00\n              keccak256\n              sload\n                /* \"contracts/Auction.sol\":2169:2197  bids[msg.sender] + msg.value */\n              tag_85\n              swap2\n              swap1\n              tag_86\n              jump\t// in\n            tag_85:\n                /* \"contracts/Auction.sol\":2151:2197  uint currentBid = bids[msg.sender] + msg.value */\n              swap1\n              pop\n                /* \"contracts/Auction.sol\":2229:2246  highestBindingBid */\n              sload(0x05)\n                /* \"contracts/Auction.sol\":2216:2226  currentBid */\n              dup2\n                /* \"contracts/Auction.sol\":2216:2246  currentBid > highestBindingBid */\n              gt\n                /* \"contracts/Auction.sol\":2208:2247  require(currentBid > highestBindingBid) */\n              tag_87\n              jumpi\n              0x00\n              dup1\n              revert\n            tag_87:\n                /* \"contracts/Auction.sol\":2277:2287  currentBid */\n              dup1\n                /* \"contracts/Auction.sol\":2258:2262  bids */\n              0x07\n                /* \"contracts/Auction.sol\":2258:2274  bids[msg.sender] */\n              0x00\n                /* \"contracts/Auction.sol\":2263:2273  msg.sender */\n              caller\n                /* \"contracts/Auction.sol\":2258:2274  bids[msg.sender] */\n              0xffffffffffffffffffffffffffffffffffffffff\n              and\n              0xffffffffffffffffffffffffffffffffffffffff\n              and\n              dup2\n              mstore\n              0x20\n              add\n              swap1\n              dup2\n              mstore\n              0x20\n              add\n              0x00\n              keccak256\n                /* \"contracts/Auction.sol\":2258:2287  bids[msg.sender] = currentBid */\n              dup2\n              swap1\n              sstore\n              pop\n                /* \"contracts/Auction.sol\":2460:2464  bids */\n              0x07\n                /* \"contracts/Auction.sol\":2460:2479  bids[highestBidder] */\n              0x00\n                /* \"contracts/Auction.sol\":2465:2478  highestBidder */\n              0x06\n              0x00\n              swap1\n              sload\n              swap1\n              0x0100\n              exp\n              swap1\n              div\n              0xffffffffffffffffffffffffffffffffffffffff\n              and\n                /* \"contracts/Auction.sol\":2460:2479  bids[highestBidder] */\n              0xffffffffffffffffffffffffffffffffffffffff\n              and\n              0xffffffffffffffffffffffffffffffffffffffff\n              and\n              dup2\n              mstore\n              0x20\n              add\n              swap1\n              dup2\n              mstore\n              0x20\n              add\n              0x00\n              keccak256\n              sload\n                /* \"contracts/Auction.sol\":2446:2456  currentBid */\n              dup2\n                /* \"contracts/Auction.sol\":2446:2479  currentBid <= bids[highestBidder] */\n              gt\n                /* \"contracts/Auction.sol\":2443:2728  if(currentBid <= bids[highestBidder]) {... */\n              tag_88\n              jumpi\n                /* \"contracts/Auction.sol\":2516:2565  min(currentBid +bidIncrement,bids[highestBidder]) */\n              tag_89\n                /* \"contracts/Auction.sol\":2532:2544  bidIncrement */\n              sload(0x08)\n                /* \"contracts/Auction.sol\":2520:2530  currentBid */\n              dup3\n                /* \"contracts/Auction.sol\":2520:2544  currentBid +bidIncrement */\n              tag_90\n              swap2\n              swap1\n              tag_86\n              jump\t// in\n            tag_90:\n                /* \"contracts/Auction.sol\":2545:2549  bids */\n              0x07\n                /* \"contracts/Auction.sol\":2545:2564  bids[highestBidder] */\n              0x00\n                /* \"contracts/Auction.sol\":2550:2563  highestBidder */\n              0x06\n              0x00\n              swap1\n              sload\n              swap1\n              0x0100\n              exp\n              swap1\n              div\n              0xffffffffffffffffffffffffffffffffffffffff\n              and\n                /* \"contracts/Auction.sol\":2545:2564  bids[highestBidder] */\n              0xffffffffffffffffffffffffffffffffffffffff\n              and\n              0xffffffffffffffffffffffffffffffffffffffff\n              and\n              dup2\n              mstore\n              0x20\n              add\n              swap1\n              dup2\n              mstore\n              0x20\n              add\n              0x00\n              keccak256\n              sload\n                /* \"contracts/Auction.sol\":2516:2519  min */\n              tag_91\n                /* \"contracts/Auction.sol\":2516:2565  min(currentBid +bidIncrement,bids[highestBidder]) */\n              jump\t// in\n            tag_89:\n                /* \"contracts/Auction.sol\":2496:2513  highestBindingBid */\n              0x05\n                /* \"contracts/Auction.sol\":2496:2565  highestBindingBid = min(currentBid +bidIncrement,bids[highestBidder]) */\n              dup2\n              swap1\n              sstore\n              pop\n                /* \"contracts/Auction.sol\":2443:2728  if(currentBid <= bids[highestBidder]) {... */\n              jump(tag_92)\n            tag_88:\n                /* \"contracts/Auction.sol\":2617:2666  min(currentBid, bids[highestBidder]+bidIncrement) */\n              tag_93\n                /* \"contracts/Auction.sol\":2621:2631  currentBid */\n              dup2\n                /* \"contracts/Auction.sol\":2653:2665  bidIncrement */\n              sload(0x08)\n                /* \"contracts/Auction.sol\":2633:2637  bids */\n              0x07\n                /* \"contracts/Auction.sol\":2633:2652  bids[highestBidder] */\n              0x00\n                /* \"contracts/Auction.sol\":2638:2651  highestBidder */\n              0x06\n              0x00\n              swap1\n              sload\n              swap1\n              0x0100\n              exp\n              swap1\n              div\n              0xffffffffffffffffffffffffffffffffffffffff\n              and\n                /* \"contracts/Auction.sol\":2633:2652  bids[highestBidder] */\n              0xffffffffffffffffffffffffffffffffffffffff\n              and\n              0xffffffffffffffffffffffffffffffffffffffff\n              and\n              dup2\n              mstore\n              0x20\n              add\n              swap1\n              dup2\n              mstore\n              0x20\n              add\n              0x00\n              keccak256\n              sload\n                /* \"contracts/Auction.sol\":2633:2665  bids[highestBidder]+bidIncrement */\n              tag_94\n              swap2\n              swap1\n              tag_86\n              jump\t// in\n            tag_94:\n                /* \"contracts/Auction.sol\":2617:2620  min */\n              tag_91\n                /* \"contracts/Auction.sol\":2617:2666  min(currentBid, bids[highestBidder]+bidIncrement) */\n              jump\t// in\n            tag_93:\n                /* \"contracts/Auction.sol\":2597:2614  highestBindingBid */\n              0x05\n                /* \"contracts/Auction.sol\":2597:2666  highestBindingBid = min(currentBid, bids[highestBidder]+bidIncrement) */\n              dup2\n              swap1\n              sstore\n              pop\n                /* \"contracts/Auction.sol\":2705:2715  msg.sender */\n              caller\n                /* \"contracts/Auction.sol\":2681:2694  highestBidder */\n              0x06\n              0x00\n                /* \"contracts/Auction.sol\":2681:2716  highestBidder = payable(msg.sender) */\n              0x0100\n              exp\n              dup2\n              sload\n              dup2\n              0xffffffffffffffffffffffffffffffffffffffff\n              mul\n              not\n              and\n              swap1\n              dup4\n              0xffffffffffffffffffffffffffffffffffffffff\n              and\n              mul\n              or\n              swap1\n              sstore\n              pop\n                /* \"contracts/Auction.sol\":2443:2728  if(currentBid <= bids[highestBidder]) {... */\n            tag_92:\n                /* \"contracts/Auction.sol\":2055:2735  {... */\n              pop\n                /* \"contracts/Auction.sol\":1990:2735  function placeBid() public payable notOwner afterStart beforeEnd {... */\n              jump\t// out\n                /* \"contracts/Auction.sol\":665:694  uint public highestBindingBid */\n            tag_55:\n              sload(0x05)\n              dup2\n              jump\t// out\n                /* \"contracts/Auction.sol\":2880:3962  function finalizeAuction() public {... */\n            tag_59:\n                /* \"contracts/Auction.sol\":3132:3146  State.Canceled */\n              0x03\n                /* \"contracts/Auction.sol\":3116:3146  auctionState == State.Canceled */\n              dup1\n              dup2\n              gt\n              iszero\n              tag_96\n              jumpi\n              tag_97\n              tag_65\n              jump\t// in\n            tag_97:\n            tag_96:\n                /* \"contracts/Auction.sol\":3116:3128  auctionState */\n              0x04\n              0x00\n              swap1\n              sload\n              swap1\n              0x0100\n              exp\n              swap1\n              div\n              0xff\n              and\n                /* \"contracts/Auction.sol\":3116:3146  auctionState == State.Canceled */\n              0x03\n              dup2\n              gt\n              iszero\n              tag_98\n              jumpi\n              tag_99\n              tag_65\n              jump\t// in\n            tag_99:\n            tag_98:\n              eq\n                /* \"contracts/Auction.sol\":3116:3173  auctionState == State.Canceled || block.number > endBlock */\n              dup1\n              tag_100\n              jumpi\n              pop\n                /* \"contracts/Auction.sol\":3165:3173  endBlock */\n              sload(0x02)\n                /* \"contracts/Auction.sol\":3150:3162  block.number */\n              number\n                /* \"contracts/Auction.sol\":3150:3173  block.number > endBlock */\n              gt\n                /* \"contracts/Auction.sol\":3116:3173  auctionState == State.Canceled || block.number > endBlock */\n            tag_100:\n                /* \"contracts/Auction.sol\":3108:3174  require(auctionState == State.Canceled || block.number > endBlock) */\n              tag_101\n              jumpi\n              0x00\n              dup1\n              revert\n            tag_101:\n                /* \"contracts/Auction.sol\":3313:3318  owner */\n              0x00\n              dup1\n              sload\n              swap1\n              0x0100\n              exp\n              swap1\n              div\n              0xffffffffffffffffffffffffffffffffffffffff\n              and\n                /* \"contracts/Auction.sol\":3299:3318  msg.sender == owner */\n              0xffffffffffffffffffffffffffffffffffffffff\n              and\n                /* \"contracts/Auction.sol\":3299:3309  msg.sender */\n              caller\n                /* \"contracts/Auction.sol\":3299:3318  msg.sender == owner */\n              0xffffffffffffffffffffffffffffffffffffffff\n              and\n              eq\n                /* \"contracts/Auction.sol\":3299:3342  msg.sender == owner || bids[msg.sender] > 0 */\n              dup1\n              tag_102\n              jumpi\n              pop\n                /* \"contracts/Auction.sol\":3341:3342  0 */\n              0x00\n                /* \"contracts/Auction.sol\":3322:3326  bids */\n              0x07\n                /* \"contracts/Auction.sol\":3322:3338  bids[msg.sender] */\n              0x00\n                /* \"contracts/Auction.sol\":3327:3337  msg.sender */\n              caller\n                /* \"contracts/Auction.sol\":3322:3338  bids[msg.sender] */\n              0xffffffffffffffffffffffffffffffffffffffff\n              and\n              0xffffffffffffffffffffffffffffffffffffffff\n              and\n              dup2\n              mstore\n              0x20\n              add\n              swap1\n              dup2\n              mstore\n              0x20\n              add\n              0x00\n              keccak256\n              sload\n                /* \"contracts/Auction.sol\":3322:3342  bids[msg.sender] > 0 */\n              gt\n                /* \"contracts/Auction.sol\":3299:3342  msg.sender == owner || bids[msg.sender] > 0 */\n            tag_102:\n                /* \"contracts/Auction.sol\":3291:3343  require(msg.sender == owner || bids[msg.sender] > 0) */\n              tag_103\n              jumpi\n              0x00\n              dup1\n              revert\n            tag_103:\n                /* \"contracts/Auction.sol\":3397:3422  address payable recipient */\n              0x00\n                /* \"contracts/Auction.sol\":3429:3439  uint value */\n              dup1\n                /* \"contracts/Auction.sol\":3511:3516  owner */\n              0x00\n              dup1\n              sload\n              swap1\n              0x0100\n              exp\n              swap1\n              div\n              0xffffffffffffffffffffffffffffffffffffffff\n              and\n                /* \"contracts/Auction.sol\":3497:3516  msg.sender == owner */\n              0xffffffffffffffffffffffffffffffffffffffff\n              and\n                /* \"contracts/Auction.sol\":3497:3507  msg.sender */\n              caller\n                /* \"contracts/Auction.sol\":3497:3516  msg.sender == owner */\n              0xffffffffffffffffffffffffffffffffffffffff\n              and\n              sub\n                /* \"contracts/Auction.sol\":3494:3857  if(msg.sender == owner){... */\n              tag_104\n              jumpi\n                /* \"contracts/Auction.sol\":3540:3545  owner */\n              0x00\n              dup1\n              sload\n              swap1\n              0x0100\n              exp\n              swap1\n              div\n              0xffffffffffffffffffffffffffffffffffffffff\n              and\n                /* \"contracts/Auction.sol\":3528:3545  recipient = owner */\n              swap2\n              pop\n                /* \"contracts/Auction.sol\":3564:3581  highestBindingBid */\n              sload(0x05)\n                /* \"contracts/Auction.sol\":3556:3581  value = highestBindingBid */\n              swap1\n              pop\n                /* \"contracts/Auction.sol\":3494:3857  if(msg.sender == owner){... */\n              jump(tag_105)\n            tag_104:\n                /* \"contracts/Auction.sol\":3621:3634  highestBidder */\n              0x06\n              0x00\n              swap1\n              sload\n              swap1\n              0x0100\n              exp\n              swap1\n              div\n              0xffffffffffffffffffffffffffffffffffffffff\n              and\n                /* \"contracts/Auction.sol\":3607:3634  msg.sender == highestBidder */\n              0xffffffffffffffffffffffffffffffffffffffff\n              and\n                /* \"contracts/Auction.sol\":3607:3617  msg.sender */\n              caller\n                /* \"contracts/Auction.sol\":3607:3634  msg.sender == highestBidder */\n              0xffffffffffffffffffffffffffffffffffffffff\n              and\n              sub\n                /* \"contracts/Auction.sol\":3604:3850  if(msg.sender == highestBidder){... */\n              tag_106\n              jumpi\n                /* \"contracts/Auction.sol\":3662:3675  highestBidder */\n              0x06\n              0x00\n              swap1\n              sload\n              swap1\n              0x0100\n              exp\n              swap1\n              div\n              0xffffffffffffffffffffffffffffffffffffffff\n              and\n                /* \"contracts/Auction.sol\":3650:3675  recipient = highestBidder */\n              swap2\n              pop\n                /* \"contracts/Auction.sol\":3720:3737  highestBindingBid */\n              sload(0x05)\n                /* \"contracts/Auction.sol\":3698:3702  bids */\n              0x07\n                /* \"contracts/Auction.sol\":3698:3717  bids[highestBidder] */\n              0x00\n                /* \"contracts/Auction.sol\":3703:3716  highestBidder */\n              0x06\n              0x00\n              swap1\n              sload\n              swap1\n              0x0100\n              exp\n              swap1\n              div\n              0xffffffffffffffffffffffffffffffffffffffff\n              and\n                /* \"contracts/Auction.sol\":3698:3717  bids[highestBidder] */\n              0xffffffffffffffffffffffffffffffffffffffff\n              and\n              0xffffffffffffffffffffffffffffffffffffffff\n              and\n              dup2\n              mstore\n              0x20\n              add\n              swap1\n              dup2\n              mstore\n              0x20\n              add\n              0x00\n              keccak256\n              sload\n                /* \"contracts/Auction.sol\":3698:3737  bids[highestBidder] - highestBindingBid */\n              tag_107\n              swap2\n              swap1\n              tag_108\n              jump\t// in\n            tag_107:\n                /* \"contracts/Auction.sol\":3690:3737  value = bids[highestBidder] - highestBindingBid */\n              swap1\n              pop\n                /* \"contracts/Auction.sol\":3604:3850  if(msg.sender == highestBidder){... */\n              jump(tag_109)\n            tag_106:\n                /* \"contracts/Auction.sol\":3788:3798  msg.sender */\n              caller\n                /* \"contracts/Auction.sol\":3768:3799  recipient = payable(msg.sender) */\n              swap2\n              pop\n                /* \"contracts/Auction.sol\":3822:3826  bids */\n              0x07\n                /* \"contracts/Auction.sol\":3822:3838  bids[msg.sender] */\n              0x00\n                /* \"contracts/Auction.sol\":3827:3837  msg.sender */\n              caller\n                /* \"contracts/Auction.sol\":3822:3838  bids[msg.sender] */\n              0xffffffffffffffffffffffffffffffffffffffff\n              and\n              0xffffffffffffffffffffffffffffffffffffffff\n              and\n              dup2\n              mstore\n              0x20\n              add\n              swap1\n              dup2\n              mstore\n              0x20\n              add\n              0x00\n              keccak256\n              sload\n                /* \"contracts/Auction.sol\":3814:3838  value = bids[msg.sender] */\n              swap1\n              pop\n                /* \"contracts/Auction.sol\":3604:3850  if(msg.sender == highestBidder){... */\n            tag_109:\n                /* \"contracts/Auction.sol\":3494:3857  if(msg.sender == owner){... */\n            tag_105:\n                /* \"contracts/Auction.sol\":3925:3926  0 */\n              0x00\n                /* \"contracts/Auction.sol\":3907:3911  bids */\n              0x07\n                /* \"contracts/Auction.sol\":3907:3922  bids[recipient] */\n              0x00\n                /* \"contracts/Auction.sol\":3912:3921  recipient */\n              dup5\n                /* \"contracts/Auction.sol\":3907:3922  bids[recipient] */\n              0xffffffffffffffffffffffffffffffffffffffff\n              and\n              0xffffffffffffffffffffffffffffffffffffffff\n              and\n              dup2\n              mstore\n              0x20\n              add\n              swap1\n              dup2\n              mstore\n              0x20\n              add\n              0x00\n              keccak256\n                /* \"contracts/Auction.sol\":3907:3926  bids[recipient] = 0 */\n              dup2\n              swap1\n              sstore\n              pop\n                /* \"contracts/Auction.sol\":3933:3942  recipient */\n              dup2\n                /* \"contracts/Auction.sol\":3933:3951  recipient.transfer */\n              0xffffffffffffffffffffffffffffffffffffffff\n              and\n                /* \"contracts/Auction.sol\":3933:3958  recipient.transfer(value) */\n              0x08fc\n                /* \"contracts/Auction.sol\":3952:3957  value */\n              dup3\n                /* \"contracts/Auction.sol\":3933:3958  recipient.transfer(value) */\n              swap1\n              dup2\n              iszero\n              mul\n              swap1\n              mload(0x40)\n              0x00\n              mload(0x40)\n              dup1\n              dup4\n              sub\n              dup2\n              dup6\n              dup9\n              dup9\n              call\n              swap4\n              pop\n              pop\n              pop\n              pop\n              iszero\n              dup1\n              iszero\n              tag_111\n              jumpi\n              returndatasize\n              0x00\n              dup1\n              returndatacopy\n              revert(0x00, returndatasize)\n            tag_111:\n              pop\n                /* \"contracts/Auction.sol\":2914:3962  {... */\n              pop\n              pop\n                /* \"contracts/Auction.sol\":2880:3962  function finalizeAuction() public {... */\n              jump\t// out\n                /* \"contracts/Auction.sol\":1770:1910  function min(uint a, uint b) pure internal returns(uint) {... */\n            tag_91:\n                /* \"contracts/Auction.sol\":1821:1825  uint */\n              0x00\n                /* \"contracts/Auction.sol\":1842:1843  b */\n              dup2\n                /* \"contracts/Auction.sol\":1837:1838  a */\n              dup4\n                /* \"contracts/Auction.sol\":1837:1843  a <= b */\n              gt\n                /* \"contracts/Auction.sol\":1834:1903  if(a <= b) {... */\n              tag_113\n              jumpi\n                /* \"contracts/Auction.sol\":1863:1864  a */\n              dup3\n                /* \"contracts/Auction.sol\":1856:1864  return a */\n              swap1\n              pop\n              jump(tag_112)\n                /* \"contracts/Auction.sol\":1834:1903  if(a <= b) {... */\n            tag_113:\n                /* \"contracts/Auction.sol\":1894:1895  b */\n              dup2\n                /* \"contracts/Auction.sol\":1887:1895  return b */\n              swap1\n              pop\n                /* \"contracts/Auction.sol\":1770:1910  function min(uint a, uint b) pure internal returns(uint) {... */\n            tag_112:\n              swap3\n              swap2\n              pop\n              pop\n              jump\t// out\n                /* \"#utility.yul\":7:84   */\n            tag_115:\n                /* \"#utility.yul\":44:51   */\n              0x00\n                /* \"#utility.yul\":73:78   */\n              dup2\n                /* \"#utility.yul\":62:78   */\n              swap1\n              pop\n                /* \"#utility.yul\":7:84   */\n              swap2\n              swap1\n              pop\n              jump\t// out\n                /* \"#utility.yul\":90:208   */\n            tag_116:\n                /* \"#utility.yul\":177:201   */\n              tag_140\n                /* \"#utility.yul\":195:200   */\n              dup2\n                /* \"#utility.yul\":177:201   */\n              tag_115\n              jump\t// in\n            tag_140:\n                /* \"#utility.yul\":172:175   */\n              dup3\n                /* \"#utility.yul\":165:202   */\n              mstore\n                /* \"#utility.yul\":90:208   */\n              pop\n              pop\n              jump\t// out\n                /* \"#utility.yul\":214:436   */\n            tag_18:\n                /* \"#utility.yul\":307:311   */\n              0x00\n                /* \"#utility.yul\":345:347   */\n              0x20\n                /* \"#utility.yul\":334:343   */\n              dup3\n                /* \"#utility.yul\":330:348   */\n              add\n                /* \"#utility.yul\":322:348   */\n              swap1\n              pop\n                /* \"#utility.yul\":358:429   */\n              tag_142\n                /* \"#utility.yul\":426:427   */\n              0x00\n                /* \"#utility.yul\":415:424   */\n              dup4\n                /* \"#utility.yul\":411:428   */\n              add\n                /* \"#utility.yul\":402:408   */\n              dup5\n                /* \"#utility.yul\":358:429   */\n              tag_116\n              jump\t// in\n            tag_142:\n                /* \"#utility.yul\":214:436   */\n              swap3\n              swap2\n              pop\n              pop\n              jump\t// out\n                /* \"#utility.yul\":523:640   */\n            tag_118:\n                /* \"#utility.yul\":632:633   */\n              0x00\n                /* \"#utility.yul\":629:630   */\n              dup1\n                /* \"#utility.yul\":622:634   */\n              revert\n                /* \"#utility.yul\":769:895   */\n            tag_120:\n                /* \"#utility.yul\":806:813   */\n              0x00\n                /* \"#utility.yul\":846:888   */\n              0xffffffffffffffffffffffffffffffffffffffff\n                /* \"#utility.yul\":839:844   */\n              dup3\n                /* \"#utility.yul\":835:889   */\n              and\n                /* \"#utility.yul\":824:889   */\n              swap1\n              pop\n                /* \"#utility.yul\":769:895   */\n              swap2\n              swap1\n              pop\n              jump\t// out\n                /* \"#utility.yul\":901:997   */\n            tag_121:\n                /* \"#utility.yul\":938:945   */\n              0x00\n                /* \"#utility.yul\":967:991   */\n              tag_148\n                /* \"#utility.yul\":985:990   */\n              dup3\n                /* \"#utility.yul\":967:991   */\n              tag_120\n              jump\t// in\n            tag_148:\n                /* \"#utility.yul\":956:991   */\n              swap1\n              pop\n                /* \"#utility.yul\":901:997   */\n              swap2\n              swap1\n              pop\n              jump\t// out\n                /* \"#utility.yul\":1003:1125   */\n            tag_122:\n                /* \"#utility.yul\":1076:1100   */\n              tag_150\n                /* \"#utility.yul\":1094:1099   */\n              dup2\n                /* \"#utility.yul\":1076:1100   */\n              tag_121\n              jump\t// in\n            tag_150:\n                /* \"#utility.yul\":1069:1074   */\n              dup2\n                /* \"#utility.yul\":1066:1101   */\n              eq\n                /* \"#utility.yul\":1056:1119   */\n              tag_151\n              jumpi\n                /* \"#utility.yul\":1115:1116   */\n              0x00\n                /* \"#utility.yul\":1112:1113   */\n              dup1\n                /* \"#utility.yul\":1105:1117   */\n              revert\n                /* \"#utility.yul\":1056:1119   */\n            tag_151:\n                /* \"#utility.yul\":1003:1125   */\n              pop\n              jump\t// out\n                /* \"#utility.yul\":1131:1270   */\n            tag_123:\n                /* \"#utility.yul\":1177:1182   */\n              0x00\n                /* \"#utility.yul\":1215:1221   */\n              dup2\n                /* \"#utility.yul\":1202:1222   */\n              calldataload\n                /* \"#utility.yul\":1193:1222   */\n              swap1\n              pop\n                /* \"#utility.yul\":1231:1264   */\n              tag_153\n                /* \"#utility.yul\":1258:1263   */\n              dup2\n                /* \"#utility.yul\":1231:1264   */\n              tag_122\n              jump\t// in\n            tag_153:\n                /* \"#utility.yul\":1131:1270   */\n              swap3\n              swap2\n              pop\n              pop\n              jump\t// out\n                /* \"#utility.yul\":1276:1605   */\n            tag_26:\n                /* \"#utility.yul\":1335:1341   */\n              0x00\n                /* \"#utility.yul\":1384:1386   */\n              0x20\n                /* \"#utility.yul\":1372:1381   */\n              dup3\n                /* \"#utility.yul\":1363:1370   */\n              dup5\n                /* \"#utility.yul\":1359:1382   */\n              sub\n                /* \"#utility.yul\":1355:1387   */\n              slt\n                /* \"#utility.yul\":1352:1471   */\n              iszero\n              tag_155\n              jumpi\n                /* \"#utility.yul\":1390:1469   */\n              tag_156\n              tag_118\n              jump\t// in\n            tag_156:\n                /* \"#utility.yul\":1352:1471   */\n            tag_155:\n                /* \"#utility.yul\":1510:1511   */\n              0x00\n                /* \"#utility.yul\":1535:1588   */\n              tag_157\n                /* \"#utility.yul\":1580:1587   */\n              dup5\n                /* \"#utility.yul\":1571:1577   */\n              dup3\n                /* \"#utility.yul\":1560:1569   */\n              dup6\n                /* \"#utility.yul\":1556:1578   */\n              add\n                /* \"#utility.yul\":1535:1588   */\n              tag_123\n              jump\t// in\n            tag_157:\n                /* \"#utility.yul\":1525:1588   */\n              swap2\n              pop\n                /* \"#utility.yul\":1481:1598   */\n              pop\n                /* \"#utility.yul\":1276:1605   */\n              swap3\n              swap2\n              pop\n              pop\n              jump\t// out\n                /* \"#utility.yul\":1611:1791   */\n            tag_65:\n                /* \"#utility.yul\":1659:1736   */\n              0x4e487b7100000000000000000000000000000000000000000000000000000000\n                /* \"#utility.yul\":1656:1657   */\n              0x00\n                /* \"#utility.yul\":1649:1737   */\n              mstore\n                /* \"#utility.yul\":1756:1760   */\n              0x21\n                /* \"#utility.yul\":1753:1754   */\n              0x04\n                /* \"#utility.yul\":1746:1761   */\n              mstore\n                /* \"#utility.yul\":1780:1784   */\n              0x24\n                /* \"#utility.yul\":1777:1778   */\n              0x00\n                /* \"#utility.yul\":1770:1785   */\n              revert\n                /* \"#utility.yul\":1797:1910   */\n            tag_124:\n                /* \"#utility.yul\":1878:1879   */\n              0x04\n                /* \"#utility.yul\":1871:1876   */\n              dup2\n                /* \"#utility.yul\":1868:1880   */\n              lt\n                /* \"#utility.yul\":1858:1904   */\n              tag_160\n              jumpi\n                /* \"#utility.yul\":1884:1902   */\n              tag_161\n              tag_65\n              jump\t// in\n            tag_161:\n                /* \"#utility.yul\":1858:1904   */\n            tag_160:\n                /* \"#utility.yul\":1797:1910   */\n              pop\n              jump\t// out\n                /* \"#utility.yul\":1916:2043   */\n            tag_125:\n                /* \"#utility.yul\":1961:1968   */\n              0x00\n                /* \"#utility.yul\":1990:1995   */\n              dup2\n                /* \"#utility.yul\":1979:1995   */\n              swap1\n              pop\n                /* \"#utility.yul\":1996:2037   */\n              tag_163\n                /* \"#utility.yul\":2031:2036   */\n              dup3\n                /* \"#utility.yul\":1996:2037   */\n              tag_124\n              jump\t// in\n            tag_163:\n                /* \"#utility.yul\":1916:2043   */\n              swap2\n              swap1\n              pop\n              jump\t// out\n                /* \"#utility.yul\":2049:2176   */\n            tag_126:\n                /* \"#utility.yul\":2105:2114   */\n              0x00\n                /* \"#utility.yul\":2138:2170   */\n              tag_165\n                /* \"#utility.yul\":2164:2169   */\n              dup3\n                /* \"#utility.yul\":2138:2170   */\n              tag_125\n              jump\t// in\n            tag_165:\n                /* \"#utility.yul\":2125:2170   */\n              swap1\n              pop\n                /* \"#utility.yul\":2049:2176   */\n              swap2\n              swap1\n              pop\n              jump\t// out\n                /* \"#utility.yul\":2182:2325   */\n            tag_127:\n                /* \"#utility.yul\":2275:2318   */\n              tag_167\n                /* \"#utility.yul\":2312:2317   */\n              dup2\n                /* \"#utility.yul\":2275:2318   */\n              tag_126\n              jump\t// in\n            tag_167:\n                /* \"#utility.yul\":2270:2273   */\n              dup3\n                /* \"#utility.yul\":2263:2319   */\n              mstore\n                /* \"#utility.yul\":2182:2325   */\n              pop\n              pop\n              jump\t// out\n                /* \"#utility.yul\":2331:2565   */\n            tag_33:\n                /* \"#utility.yul\":2430:2434   */\n              0x00\n                /* \"#utility.yul\":2468:2470   */\n              0x20\n                /* \"#utility.yul\":2457:2466   */\n              dup3\n                /* \"#utility.yul\":2453:2471   */\n              add\n                /* \"#utility.yul\":2445:2471   */\n              swap1\n              pop\n                /* \"#utility.yul\":2481:2558   */\n              tag_169\n                /* \"#utility.yul\":2555:2556   */\n              0x00\n                /* \"#utility.yul\":2544:2553   */\n              dup4\n                /* \"#utility.yul\":2540:2557   */\n              add\n                /* \"#utility.yul\":2531:2537   */\n              dup5\n                /* \"#utility.yul\":2481:2558   */\n              tag_127\n              jump\t// in\n            tag_169:\n                /* \"#utility.yul\":2331:2565   */\n              swap3\n              swap2\n              pop\n              pop\n              jump\t// out\n                /* \"#utility.yul\":2571:2675   */\n            tag_128:\n                /* \"#utility.yul\":2616:2623   */\n              0x00\n                /* \"#utility.yul\":2645:2669   */\n              tag_171\n                /* \"#utility.yul\":2663:2668   */\n              dup3\n                /* \"#utility.yul\":2645:2669   */\n              tag_120\n              jump\t// in\n            tag_171:\n                /* \"#utility.yul\":2634:2669   */\n              swap1\n              pop\n                /* \"#utility.yul\":2571:2675   */\n              swap2\n              swap1\n              pop\n              jump\t// out\n                /* \"#utility.yul\":2681:2823   */\n            tag_129:\n                /* \"#utility.yul\":2784:2816   */\n              tag_173\n                /* \"#utility.yul\":2810:2815   */\n              dup2\n                /* \"#utility.yul\":2784:2816   */\n              tag_128\n              jump\t// in\n            tag_173:\n                /* \"#utility.yul\":2779:2782   */\n              dup3\n                /* \"#utility.yul\":2772:2817   */\n              mstore\n                /* \"#utility.yul\":2681:2823   */\n              pop\n              pop\n              jump\t// out\n                /* \"#utility.yul\":2829:3083   */\n            tag_38:\n                /* \"#utility.yul\":2938:2942   */\n              0x00\n                /* \"#utility.yul\":2976:2978   */\n              0x20\n                /* \"#utility.yul\":2965:2974   */\n              dup3\n                /* \"#utility.yul\":2961:2979   */\n              add\n                /* \"#utility.yul\":2953:2979   */\n              swap1\n              pop\n                /* \"#utility.yul\":2989:3076   */\n              tag_175\n                /* \"#utility.yul\":3073:3074   */\n              0x00\n                /* \"#utility.yul\":3062:3071   */\n              dup4\n                /* \"#utility.yul\":3058:3075   */\n              add\n                /* \"#utility.yul\":3049:3055   */\n              dup5\n                /* \"#utility.yul\":2989:3076   */\n              tag_129\n              jump\t// in\n            tag_175:\n                /* \"#utility.yul\":2829:3083   */\n              swap3\n              swap2\n              pop\n              pop\n              jump\t// out\n                /* \"#utility.yul\":3089:3188   */\n            tag_130:\n                /* \"#utility.yul\":3141:3147   */\n              0x00\n                /* \"#utility.yul\":3175:3180   */\n              dup2\n                /* \"#utility.yul\":3169:3181   */\n              mload\n                /* \"#utility.yul\":3159:3181   */\n              swap1\n              pop\n                /* \"#utility.yul\":3089:3188   */\n              swap2\n              swap1\n              pop\n              jump\t// out\n                /* \"#utility.yul\":3194:3363   */\n            tag_131:\n                /* \"#utility.yul\":3278:3289   */\n              0x00\n                /* \"#utility.yul\":3312:3318   */\n              dup3\n                /* \"#utility.yul\":3307:3310   */\n              dup3\n                /* \"#utility.yul\":3300:3319   */\n              mstore\n                /* \"#utility.yul\":3352:3356   */\n              0x20\n                /* \"#utility.yul\":3347:3350   */\n              dup3\n                /* \"#utility.yul\":3343:3357   */\n              add\n                /* \"#utility.yul\":3328:3357   */\n              swap1\n              pop\n                /* \"#utility.yul\":3194:3363   */\n              swap3\n              swap2\n              pop\n              pop\n              jump\t// out\n                /* \"#utility.yul\":3369:3676   */\n            tag_132:\n                /* \"#utility.yul\":3437:3438   */\n              0x00\n                /* \"#utility.yul\":3447:3560   */\n            tag_179:\n                /* \"#utility.yul\":3461:3467   */\n              dup4\n                /* \"#utility.yul\":3458:3459   */\n              dup2\n                /* \"#utility.yul\":3455:3468   */\n              lt\n                /* \"#utility.yul\":3447:3560   */\n              iszero\n              tag_181\n              jumpi\n                /* \"#utility.yul\":3546:3547   */\n              dup1\n                /* \"#utility.yul\":3541:3544   */\n              dup3\n                /* \"#utility.yul\":3537:3548   */\n              add\n                /* \"#utility.yul\":3531:3549   */\n              mload\n                /* \"#utility.yul\":3527:3528   */\n              dup2\n                /* \"#utility.yul\":3522:3525   */\n              dup5\n                /* \"#utility.yul\":3518:3529   */\n              add\n                /* \"#utility.yul\":3511:3550   */\n              mstore\n                /* \"#utility.yul\":3483:3485   */\n              0x20\n                /* \"#utility.yul\":3480:3481   */\n              dup2\n                /* \"#utility.yul\":3476:3486   */\n              add\n                /* \"#utility.yul\":3471:3486   */\n              swap1\n              pop\n                /* \"#utility.yul\":3447:3560   */\n              jump(tag_179)\n            tag_181:\n                /* \"#utility.yul\":3578:3584   */\n              dup4\n                /* \"#utility.yul\":3575:3576   */\n              dup2\n                /* \"#utility.yul\":3572:3585   */\n              gt\n                /* \"#utility.yul\":3569:3670   */\n              iszero\n              tag_182\n              jumpi\n                /* \"#utility.yul\":3658:3659   */\n              0x00\n                /* \"#utility.yul\":3649:3655   */\n              dup5\n                /* \"#utility.yul\":3644:3647   */\n              dup5\n                /* \"#utility.yul\":3640:3656   */\n              add\n                /* \"#utility.yul\":3633:3660   */\n              mstore\n                /* \"#utility.yul\":3569:3670   */\n            tag_182:\n                /* \"#utility.yul\":3418:3676   */\n              pop\n                /* \"#utility.yul\":3369:3676   */\n              pop\n              pop\n              pop\n              jump\t// out\n                /* \"#utility.yul\":3682:3784   */\n            tag_133:\n                /* \"#utility.yul\":3723:3729   */\n              0x00\n                /* \"#utility.yul\":3774:3776   */\n              0x1f\n                /* \"#utility.yul\":3770:3777   */\n              not\n                /* \"#utility.yul\":3765:3767   */\n              0x1f\n                /* \"#utility.yul\":3758:3763   */\n              dup4\n                /* \"#utility.yul\":3754:3768   */\n              add\n                /* \"#utility.yul\":3750:3778   */\n              and\n                /* \"#utility.yul\":3740:3778   */\n              swap1\n              pop\n                /* \"#utility.yul\":3682:3784   */\n              swap2\n              swap1\n              pop\n              jump\t// out\n                /* \"#utility.yul\":3790:4154   */\n            tag_134:\n                /* \"#utility.yul\":3878:3881   */\n              0x00\n                /* \"#utility.yul\":3906:3945   */\n              tag_185\n                /* \"#utility.yul\":3939:3944   */\n              dup3\n                /* \"#utility.yul\":3906:3945   */\n              tag_130\n              jump\t// in\n            tag_185:\n                /* \"#utility.yul\":3961:4032   */\n              tag_186\n                /* \"#utility.yul\":4025:4031   */\n              dup2\n                /* \"#utility.yul\":4020:4023   */\n              dup6\n                /* \"#utility.yul\":3961:4032   */\n              tag_131\n              jump\t// in\n            tag_186:\n                /* \"#utility.yul\":3954:4032   */\n              swap4\n              pop\n                /* \"#utility.yul\":4041:4093   */\n              tag_187\n                /* \"#utility.yul\":4086:4092   */\n              dup2\n                /* \"#utility.yul\":4081:4084   */\n              dup6\n                /* \"#utility.yul\":4074:4078   */\n              0x20\n                /* \"#utility.yul\":4067:4072   */\n              dup7\n                /* \"#utility.yul\":4063:4079   */\n              add\n                /* \"#utility.yul\":4041:4093   */\n              tag_132\n              jump\t// in\n            tag_187:\n                /* \"#utility.yul\":4118:4147   */\n              tag_188\n                /* \"#utility.yul\":4140:4146   */\n              dup2\n                /* \"#utility.yul\":4118:4147   */\n              tag_133\n              jump\t// in\n            tag_188:\n                /* \"#utility.yul\":4113:4116   */\n              dup5\n                /* \"#utility.yul\":4109:4148   */\n              add\n                /* \"#utility.yul\":4102:4148   */\n              swap2\n              pop\n                /* \"#utility.yul\":3882:4154   */\n              pop\n                /* \"#utility.yul\":3790:4154   */\n              swap3\n              swap2\n              pop\n              pop\n              jump\t// out\n                /* \"#utility.yul\":4160:4473   */\n            tag_50:\n                /* \"#utility.yul\":4273:4277   */\n              0x00\n                /* \"#utility.yul\":4311:4313   */\n              0x20\n                /* \"#utility.yul\":4300:4309   */\n              dup3\n                /* \"#utility.yul\":4296:4314   */\n              add\n                /* \"#utility.yul\":4288:4314   */\n              swap1\n              pop\n                /* \"#utility.yul\":4360:4369   */\n              dup2\n                /* \"#utility.yul\":4354:4358   */\n              dup2\n                /* \"#utility.yul\":4350:4370   */\n              sub\n                /* \"#utility.yul\":4346:4347   */\n              0x00\n                /* \"#utility.yul\":4335:4344   */\n              dup4\n                /* \"#utility.yul\":4331:4348   */\n              add\n                /* \"#utility.yul\":4324:4371   */\n              mstore\n                /* \"#utility.yul\":4388:4466   */\n              tag_190\n                /* \"#utility.yul\":4461:4465   */\n              dup2\n                /* \"#utility.yul\":4452:4458   */\n              dup5\n                /* \"#utility.yul\":4388:4466   */\n              tag_134\n              jump\t// in\n            tag_190:\n                /* \"#utility.yul\":4380:4466   */\n              swap1\n              pop\n                /* \"#utility.yul\":4160:4473   */\n              swap3\n              swap2\n              pop\n              pop\n              jump\t// out\n                /* \"#utility.yul\":4479:4659   */\n            tag_135:\n                /* \"#utility.yul\":4527:4604   */\n              0x4e487b7100000000000000000000000000000000000000000000000000000000\n                /* \"#utility.yul\":4524:4525   */\n              0x00\n                /* \"#utility.yul\":4517:4605   */\n              mstore\n                /* \"#utility.yul\":4624:4628   */\n              0x22\n                /* \"#utility.yul\":4621:4622   */\n              0x04\n                /* \"#utility.yul\":4614:4629   */\n              mstore\n                /* \"#utility.yul\":4648:4652   */\n              0x24\n                /* \"#utility.yul\":4645:4646   */\n              0x00\n                /* \"#utility.yul\":4638:4653   */\n              revert\n                /* \"#utility.yul\":4665:4985   */\n            tag_67:\n                /* \"#utility.yul\":4709:4715   */\n              0x00\n                /* \"#utility.yul\":4746:4747   */\n              0x02\n                /* \"#utility.yul\":4740:4744   */\n              dup3\n                /* \"#utility.yul\":4736:4748   */\n              div\n                /* \"#utility.yul\":4726:4748   */\n              swap1\n              pop\n                /* \"#utility.yul\":4793:4794   */\n              0x01\n                /* \"#utility.yul\":4787:4791   */\n              dup3\n                /* \"#utility.yul\":4783:4795   */\n              and\n                /* \"#utility.yul\":4814:4832   */\n              dup1\n                /* \"#utility.yul\":4804:4885   */\n              tag_193\n              jumpi\n                /* \"#utility.yul\":4870:4874   */\n              0x7f\n                /* \"#utility.yul\":4862:4868   */\n              dup3\n                /* \"#utility.yul\":4858:4875   */\n              and\n                /* \"#utility.yul\":4848:4875   */\n              swap2\n              pop\n                /* \"#utility.yul\":4804:4885   */\n            tag_193:\n                /* \"#utility.yul\":4932:4934   */\n              0x20\n                /* \"#utility.yul\":4924:4930   */\n              dup3\n                /* \"#utility.yul\":4921:4935   */\n              lt\n                /* \"#utility.yul\":4901:4919   */\n              dup2\n                /* \"#utility.yul\":4898:4936   */\n              sub\n                /* \"#utility.yul\":4895:4979   */\n              tag_194\n              jumpi\n                /* \"#utility.yul\":4951:4969   */\n              tag_195\n              tag_135\n              jump\t// in\n            tag_195:\n                /* \"#utility.yul\":4895:4979   */\n            tag_194:\n                /* \"#utility.yul\":4716:4985   */\n              pop\n                /* \"#utility.yul\":4665:4985   */\n              swap2\n              swap1\n              pop\n              jump\t// out\n                /* \"#utility.yul\":4991:5171   */\n            tag_136:\n                /* \"#utility.yul\":5039:5116   */\n              0x4e487b7100000000000000000000000000000000000000000000000000000000\n                /* \"#utility.yul\":5036:5037   */\n              0x00\n                /* \"#utility.yul\":5029:5117   */\n              mstore\n                /* \"#utility.yul\":5136:5140   */\n              0x11\n                /* \"#utility.yul\":5133:5134   */\n              0x04\n                /* \"#utility.yul\":5126:5141   */\n              mstore\n                /* \"#utility.yul\":5160:5164   */\n              0x24\n                /* \"#utility.yul\":5157:5158   */\n              0x00\n                /* \"#utility.yul\":5150:5165   */\n              revert\n                /* \"#utility.yul\":5177:5482   */\n            tag_86:\n                /* \"#utility.yul\":5217:5220   */\n              0x00\n                /* \"#utility.yul\":5236:5256   */\n              tag_198\n                /* \"#utility.yul\":5254:5255   */\n              dup3\n                /* \"#utility.yul\":5236:5256   */\n              tag_115\n              jump\t// in\n            tag_198:\n                /* \"#utility.yul\":5231:5256   */\n              swap2\n              pop\n                /* \"#utility.yul\":5270:5290   */\n              tag_199\n                /* \"#utility.yul\":5288:5289   */\n              dup4\n                /* \"#utility.yul\":5270:5290   */\n              tag_115\n              jump\t// in\n            tag_199:\n                /* \"#utility.yul\":5265:5290   */\n              swap3\n              pop\n                /* \"#utility.yul\":5424:5425   */\n              dup3\n                /* \"#utility.yul\":5356:5422   */\n              0xffffffffffffffffffffffffffffffffffffffffffffffffffffffffffffffff\n                /* \"#utility.yul\":5352:5426   */\n              sub\n                /* \"#utility.yul\":5349:5350   */\n              dup3\n                /* \"#utility.yul\":5346:5427   */\n              gt\n                /* \"#utility.yul\":5343:5450   */\n              iszero\n              tag_200\n              jumpi\n                /* \"#utility.yul\":5430:5448   */\n              tag_201\n              tag_136\n              jump\t// in\n            tag_201:\n                /* \"#utility.yul\":5343:5450   */\n            tag_200:\n                /* \"#utility.yul\":5474:5475   */\n              dup3\n                /* \"#utility.yul\":5471:5472   */\n              dup3\n                /* \"#utility.yul\":5467:5476   */\n              add\n                /* \"#utility.yul\":5460:5476   */\n              swap1\n              pop\n                /* \"#utility.yul\":5177:5482   */\n              swap3\n              swap2\n              pop\n              pop\n              jump\t// out\n                /* \"#utility.yul\":5488:5679   */\n            tag_108:\n                /* \"#utility.yul\":5528:5532   */\n              0x00\n                /* \"#utility.yul\":5548:5568   */\n              tag_203\n                /* \"#utility.yul\":5566:5567   */\n              dup3\n                /* \"#utility.yul\":5548:5568   */\n              tag_115\n              jump\t// in\n            tag_203:\n                /* \"#utility.yul\":5543:5568   */\n              swap2\n              pop\n                /* \"#utility.yul\":5582:5602   */\n              tag_204\n                /* \"#utility.yul\":5600:5601   */\n              dup4\n                /* \"#utility.yul\":5582:5602   */\n              tag_115\n              jump\t// in\n            tag_204:\n                /* \"#utility.yul\":5577:5602   */\n              swap3\n              pop\n                /* \"#utility.yul\":5621:5622   */\n              dup3\n                /* \"#utility.yul\":5618:5619   */\n              dup3\n                /* \"#utility.yul\":5615:5623   */\n              lt\n                /* \"#utility.yul\":5612:5646   */\n              iszero\n              tag_205\n              jumpi\n                /* \"#utility.yul\":5626:5644   */\n              tag_206\n              tag_136\n              jump\t// in\n            tag_206:\n                /* \"#utility.yul\":5612:5646   */\n            tag_205:\n                /* \"#utility.yul\":5671:5672   */\n              dup3\n                /* \"#utility.yul\":5668:5669   */\n              dup3\n                /* \"#utility.yul\":5664:5673   */\n              sub\n                /* \"#utility.yul\":5656:5673   */\n              swap1\n              pop\n                /* \"#utility.yul\":5488:5679   */\n              swap3\n              swap2\n              pop\n              pop\n              jump\t// out\n\n            auxdata: 0xa26469706673582212200ab223ebca02ecddef21205726bc136560e870137e5590d3ee2c5583dca34c9464736f6c634300080e0033\n        }\n    }\n\n    auxdata: 0xa2646970667358221220635c6e01d90beade7160a275de9f919880757062d4b7a6437e9204539517f5c764736f6c634300080e0033\n}\n",
				"bytecode": {
					"linkReferences": {},
					"object": "608060405234801561001057600080fd5b50611431806100206000396000f3fe608060405234801561001057600080fd5b50600436106100365760003560e01c8063571a26a01461003b578063f58114471461006b575b600080fd5b6100556004803603810190610050919061019a565b610075565b6040516100629190610246565b60405180910390f35b6100736100b4565b005b6000818154811061008557600080fd5b906000526020600020016000915054906101000a900473ffffffffffffffffffffffffffffffffffffffff1681565b6000336040516100c390610152565b6100cd9190610282565b604051809103906000f0801580156100e9573d6000803e3d6000fd5b5090506000819080600181540180825580915050600190039060005260206000200160009091909190916101000a81548173ffffffffffffffffffffffffffffffffffffffff021916908373ffffffffffffffffffffffffffffffffffffffff16021790555050565b61115e8061029e83390190565b600080fd5b6000819050919050565b61017781610164565b811461018257600080fd5b50565b6000813590506101948161016e565b92915050565b6000602082840312156101b0576101af61015f565b5b60006101be84828501610185565b91505092915050565b600073ffffffffffffffffffffffffffffffffffffffff82169050919050565b6000819050919050565b600061020c610207610202846101c7565b6101e7565b6101c7565b9050919050565b600061021e826101f1565b9050919050565b600061023082610213565b9050919050565b61024081610225565b82525050565b600060208201905061025b6000830184610237565b92915050565b600061026c826101c7565b9050919050565b61027c81610261565b82525050565b60006020820190506102976000830184610273565b9291505056fe60806040523480156200001157600080fd5b506040516200115e3803806200115e833981810160405281019062000037919062000215565b806000806101000a81548173ffffffffffffffffffffffffffffffffffffffff021916908373ffffffffffffffffffffffffffffffffffffffff1602179055506001600460006101000a81548160ff02191690836003811115620000a0576200009f62000247565b5b021790555043600181905550619d80600154620000be9190620002af565b6002819055506040518060200160405280600081525060039080519060200190620000eb929190620000fb565b5060646008819055505062000370565b82805462000109906200033b565b90600052602060002090601f0160209004810192826200012d576000855562000179565b82601f106200014857805160ff191683800117855562000179565b8280016001018555821562000179579182015b82811115620001785782518255916020019190600101906200015b565b5b5090506200018891906200018c565b5090565b5b80821115620001a75760008160009055506001016200018d565b5090565b600080fd5b600073ffffffffffffffffffffffffffffffffffffffff82169050919050565b6000620001dd82620001b0565b9050919050565b620001ef81620001d0565b8114620001fb57600080fd5b50565b6000815190506200020f81620001e4565b92915050565b6000602082840312156200022e576200022d620001ab565b5b60006200023e84828501620001fe565b91505092915050565b7f4e487b7100000000000000000000000000000000000000000000000000000000600052602160045260246000fd5b6000819050919050565b7f4e487b7100000000000000000000000000000000000000000000000000000000600052601160045260246000fd5b6000620002bc8262000276565b9150620002c98362000276565b9250827fffffffffffffffffffffffffffffffffffffffffffffffffffffffffffffffff0382111562000301576200030062000280565b5b828201905092915050565b7f4e487b7100000000000000000000000000000000000000000000000000000000600052602260045260246000fd5b600060028204905060018216806200035457607f821691505b6020821081036200036a57620003696200030c565b5b50919050565b610dde80620003806000396000f3fe60806040526004361061009c5760003560e01c80638fa8b790116100645780638fa8b7901461018a57806391f90157146101a1578063c623674f146101cc578063ecfc7ecc146101f7578063f5b56c5614610201578063f77282ab1461022c5761009c565b8063083c6323146100a157806348cd4cb1146100cc57806362ea82db146100f75780637fb45099146101345780638da5cb5b1461015f575b600080fd5b3480156100ad57600080fd5b506100b6610243565b6040516100c39190610a5b565b60405180910390f35b3480156100d857600080fd5b506100e1610249565b6040516100ee9190610a5b565b60405180910390f35b34801561010357600080fd5b5061011e60048036038101906101199190610ad9565b61024f565b60405161012b9190610a5b565b60405180910390f35b34801561014057600080fd5b50610149610267565b6040516101569190610b7d565b60405180910390f35b34801561016b57600080fd5b5061017461027a565b6040516101819190610bb9565b60405180910390f35b34801561019657600080fd5b5061019f61029e565b005b3480156101ad57600080fd5b506101b6610323565b6040516101c39190610bb9565b60405180910390f35b3480156101d857600080fd5b506101e1610349565b6040516101ee9190610c6d565b60405180910390f35b6101ff6103d7565b005b34801561020d57600080fd5b506102166106ea565b6040516102239190610a5b565b60405180910390f35b34801561023857600080fd5b506102416106f0565b005b60025481565b60015481565b60076020528060005260406000206000915090505481565b600460009054906101000a900460ff1681565b60008054906101000a900473ffffffffffffffffffffffffffffffffffffffff1681565b60008054906101000a900473ffffffffffffffffffffffffffffffffffffffff1673ffffffffffffffffffffffffffffffffffffffff163373ffffffffffffffffffffffffffffffffffffffff16146102f657600080fd5b6003600460006101000a81548160ff0219169083600381111561031c5761031b610b06565b5b0217905550565b600660009054906101000a900473ffffffffffffffffffffffffffffffffffffffff1681565b6003805461035690610cbe565b80601f016020809104026020016040519081016040528092919081815260200182805461038290610cbe565b80156103cf5780601f106103a4576101008083540402835291602001916103cf565b820191906000526020600020905b8154815290600101906020018083116103b257829003601f168201915b505050505081565b60008054906101000a900473ffffffffffffffffffffffffffffffffffffffff1673ffffffffffffffffffffffffffffffffffffffff163373ffffffffffffffffffffffffffffffffffffffff160361042f57600080fd5b60015443101561043e57600080fd5b60025443111561044d57600080fd5b6001600381111561046157610460610b06565b5b600460009054906101000a900460ff16600381111561048357610482610b06565b5b1461048d57600080fd5b606434101561049b57600080fd5b600034600760003373ffffffffffffffffffffffffffffffffffffffff1673ffffffffffffffffffffffffffffffffffffffff168152602001908152602001600020546104e89190610d1e565b905060055481116104f857600080fd5b80600760003373ffffffffffffffffffffffffffffffffffffffff1673ffffffffffffffffffffffffffffffffffffffff1681526020019081526020016000208190555060076000600660009054906101000a900473ffffffffffffffffffffffffffffffffffffffff1673ffffffffffffffffffffffffffffffffffffffff1673ffffffffffffffffffffffffffffffffffffffff1681526020019081526020016000205481116106275761061c600854826105b59190610d1e565b60076000600660009054906101000a900473ffffffffffffffffffffffffffffffffffffffff1673ffffffffffffffffffffffffffffffffffffffff1673ffffffffffffffffffffffffffffffffffffffff16815260200190815260200160002054610a27565b6005819055506106e7565b61069f8160085460076000600660009054906101000a900473ffffffffffffffffffffffffffffffffffffffff1673ffffffffffffffffffffffffffffffffffffffff1673ffffffffffffffffffffffffffffffffffffffff1681526020019081526020016000205461069a9190610d1e565b610a27565b60058190555033600660006101000a81548173ffffffffffffffffffffffffffffffffffffffff021916908373ffffffffffffffffffffffffffffffffffffffff1602179055505b50565b60055481565b60038081111561070357610702610b06565b5b600460009054906101000a900460ff16600381111561072557610724610b06565b5b1480610732575060025443115b61073b57600080fd5b60008054906101000a900473ffffffffffffffffffffffffffffffffffffffff1673ffffffffffffffffffffffffffffffffffffffff163373ffffffffffffffffffffffffffffffffffffffff1614806107d457506000600760003373ffffffffffffffffffffffffffffffffffffffff1673ffffffffffffffffffffffffffffffffffffffff16815260200190815260200160002054115b6107dd57600080fd5b60008060008054906101000a900473ffffffffffffffffffffffffffffffffffffffff1673ffffffffffffffffffffffffffffffffffffffff163373ffffffffffffffffffffffffffffffffffffffff16036108605760008054906101000a900473ffffffffffffffffffffffffffffffffffffffff1691506005549050610997565b600660009054906101000a900473ffffffffffffffffffffffffffffffffffffffff1673ffffffffffffffffffffffffffffffffffffffff163373ffffffffffffffffffffffffffffffffffffffff160361095057600660009054906101000a900473ffffffffffffffffffffffffffffffffffffffff16915060055460076000600660009054906101000a900473ffffffffffffffffffffffffffffffffffffffff1673ffffffffffffffffffffffffffffffffffffffff1673ffffffffffffffffffffffffffffffffffffffff168152602001908152602001600020546109499190610d74565b9050610996565b339150600760003373ffffffffffffffffffffffffffffffffffffffff1673ffffffffffffffffffffffffffffffffffffffff1681526020019081526020016000205490505b5b6000600760008473ffffffffffffffffffffffffffffffffffffffff1673ffffffffffffffffffffffffffffffffffffffff168152602001908152602001600020819055508173ffffffffffffffffffffffffffffffffffffffff166108fc829081150290604051600060405180830381858888f19350505050158015610a22573d6000803e3d6000fd5b505050565b6000818311610a3857829050610a3c565b8190505b92915050565b6000819050919050565b610a5581610a42565b82525050565b6000602082019050610a706000830184610a4c565b92915050565b600080fd5b600073ffffffffffffffffffffffffffffffffffffffff82169050919050565b6000610aa682610a7b565b9050919050565b610ab681610a9b565b8114610ac157600080fd5b50565b600081359050610ad381610aad565b92915050565b600060208284031215610aef57610aee610a76565b5b6000610afd84828501610ac4565b91505092915050565b7f4e487b7100000000000000000000000000000000000000000000000000000000600052602160045260246000fd5b60048110610b4657610b45610b06565b5b50565b6000819050610b5782610b35565b919050565b6000610b6782610b49565b9050919050565b610b7781610b5c565b82525050565b6000602082019050610b926000830184610b6e565b92915050565b6000610ba382610a7b565b9050919050565b610bb381610b98565b82525050565b6000602082019050610bce6000830184610baa565b92915050565b600081519050919050565b600082825260208201905092915050565b60005b83811015610c0e578082015181840152602081019050610bf3565b83811115610c1d576000848401525b50505050565b6000601f19601f8301169050919050565b6000610c3f82610bd4565b610c498185610bdf565b9350610c59818560208601610bf0565b610c6281610c23565b840191505092915050565b60006020820190508181036000830152610c878184610c34565b905092915050565b7f4e487b7100000000000000000000000000000000000000000000000000000000600052602260045260246000fd5b60006002820490506001821680610cd657607f821691505b602082108103610ce957610ce8610c8f565b5b50919050565b7f4e487b7100000000000000000000000000000000000000000000000000000000600052601160045260246000fd5b6000610d2982610a42565b9150610d3483610a42565b9250827fffffffffffffffffffffffffffffffffffffffffffffffffffffffffffffffff03821115610d6957610d68610cef565b5b828201905092915050565b6000610d7f82610a42565b9150610d8a83610a42565b925082821015610d9d57610d9c610cef565b5b82820390509291505056fea26469706673582212200ab223ebca02ecddef21205726bc136560e870137e5590d3ee2c5583dca34c9464736f6c634300080e0033a2646970667358221220635c6e01d90beade7160a275de9f919880757062d4b7a6437e9204539517f5c764736f6c634300080e0033",
					"opcodes": "PUSH1 0x80 PUSH1 0x40 MSTORE CALLVALUE DUP1 ISZERO PUSH2 0x10 JUMPI PUSH1 0x0 DUP1 REVERT JUMPDEST POP PUSH2 0x1431 DUP1 PUSH2 0x20 PUSH1 0x0 CODECOPY PUSH1 0x0 RETURN INVALID PUSH1 0x80 PUSH1 0x40 MSTORE CALLVALUE DUP1 ISZERO PUSH2 0x10 JUMPI PUSH1 0x0 DUP1 REVERT JUMPDEST POP PUSH1 0x4 CALLDATASIZE LT PUSH2 0x36 JUMPI PUSH1 0x0 CALLDATALOAD PUSH1 0xE0 SHR DUP1 PUSH4 0x571A26A0 EQ PUSH2 0x3B JUMPI DUP1 PUSH4 0xF5811447 EQ PUSH2 0x6B JUMPI JUMPDEST PUSH1 0x0 DUP1 REVERT JUMPDEST PUSH2 0x55 PUSH1 0x4 DUP1 CALLDATASIZE SUB DUP2 ADD SWAP1 PUSH2 0x50 SWAP2 SWAP1 PUSH2 0x19A JUMP JUMPDEST PUSH2 0x75 JUMP JUMPDEST PUSH1 0x40 MLOAD PUSH2 0x62 SWAP2 SWAP1 PUSH2 0x246 JUMP JUMPDEST PUSH1 0x40 MLOAD DUP1 SWAP2 SUB SWAP1 RETURN JUMPDEST PUSH2 0x73 PUSH2 0xB4 JUMP JUMPDEST STOP JUMPDEST PUSH1 0x0 DUP2 DUP2 SLOAD DUP2 LT PUSH2 0x85 JUMPI PUSH1 0x0 DUP1 REVERT JUMPDEST SWAP1 PUSH1 0x0 MSTORE PUSH1 0x20 PUSH1 0x0 KECCAK256 ADD PUSH1 0x0 SWAP2 POP SLOAD SWAP1 PUSH2 0x100 EXP SWAP1 DIV PUSH20 0xFFFFFFFFFFFFFFFFFFFFFFFFFFFFFFFFFFFFFFFF AND DUP2 JUMP JUMPDEST PUSH1 0x0 CALLER PUSH1 0x40 MLOAD PUSH2 0xC3 SWAP1 PUSH2 0x152 JUMP JUMPDEST PUSH2 0xCD SWAP2 SWAP1 PUSH2 0x282 JUMP JUMPDEST PUSH1 0x40 MLOAD DUP1 SWAP2 SUB SWAP1 PUSH1 0x0 CREATE DUP1 ISZERO DUP1 ISZERO PUSH2 0xE9 JUMPI RETURNDATASIZE PUSH1 0x0 DUP1 RETURNDATACOPY RETURNDATASIZE PUSH1 0x0 REVERT JUMPDEST POP SWAP1 POP PUSH1 0x0 DUP2 SWAP1 DUP1 PUSH1 0x1 DUP2 SLOAD ADD DUP1 DUP3 SSTORE DUP1 SWAP2 POP POP PUSH1 0x1 SWAP1 SUB SWAP1 PUSH1 0x0 MSTORE PUSH1 0x20 PUSH1 0x0 KECCAK256 ADD PUSH1 0x0 SWAP1 SWAP2 SWAP1 SWAP2 SWAP1 SWAP2 PUSH2 0x100 EXP DUP2 SLOAD DUP2 PUSH20 0xFFFFFFFFFFFFFFFFFFFFFFFFFFFFFFFFFFFFFFFF MUL NOT AND SWAP1 DUP4 PUSH20 0xFFFFFFFFFFFFFFFFFFFFFFFFFFFFFFFFFFFFFFFF AND MUL OR SWAP1 SSTORE POP POP JUMP JUMPDEST PUSH2 0x115E DUP1 PUSH2 0x29E DUP4 CODECOPY ADD SWAP1 JUMP JUMPDEST PUSH1 0x0 DUP1 REVERT JUMPDEST PUSH1 0x0 DUP2 SWAP1 POP SWAP2 SWAP1 POP JUMP JUMPDEST PUSH2 0x177 DUP2 PUSH2 0x164 JUMP JUMPDEST DUP2 EQ PUSH2 0x182 JUMPI PUSH1 0x0 DUP1 REVERT JUMPDEST POP JUMP JUMPDEST PUSH1 0x0 DUP2 CALLDATALOAD SWAP1 POP PUSH2 0x194 DUP2 PUSH2 0x16E JUMP JUMPDEST SWAP3 SWAP2 POP POP JUMP JUMPDEST PUSH1 0x0 PUSH1 0x20 DUP3 DUP5 SUB SLT ISZERO PUSH2 0x1B0 JUMPI PUSH2 0x1AF PUSH2 0x15F JUMP JUMPDEST JUMPDEST PUSH1 0x0 PUSH2 0x1BE DUP5 DUP3 DUP6 ADD PUSH2 0x185 JUMP JUMPDEST SWAP2 POP POP SWAP3 SWAP2 POP POP JUMP JUMPDEST PUSH1 0x0 PUSH20 0xFFFFFFFFFFFFFFFFFFFFFFFFFFFFFFFFFFFFFFFF DUP3 AND SWAP1 POP SWAP2 SWAP1 POP JUMP JUMPDEST PUSH1 0x0 DUP2 SWAP1 POP SWAP2 SWAP1 POP JUMP JUMPDEST PUSH1 0x0 PUSH2 0x20C PUSH2 0x207 PUSH2 0x202 DUP5 PUSH2 0x1C7 JUMP JUMPDEST PUSH2 0x1E7 JUMP JUMPDEST PUSH2 0x1C7 JUMP JUMPDEST SWAP1 POP SWAP2 SWAP1 POP JUMP JUMPDEST PUSH1 0x0 PUSH2 0x21E DUP3 PUSH2 0x1F1 JUMP JUMPDEST SWAP1 POP SWAP2 SWAP1 POP JUMP JUMPDEST PUSH1 0x0 PUSH2 0x230 DUP3 PUSH2 0x213 JUMP JUMPDEST SWAP1 POP SWAP2 SWAP1 POP JUMP JUMPDEST PUSH2 0x240 DUP2 PUSH2 0x225 JUMP JUMPDEST DUP3 MSTORE POP POP JUMP JUMPDEST PUSH1 0x0 PUSH1 0x20 DUP3 ADD SWAP1 POP PUSH2 0x25B PUSH1 0x0 DUP4 ADD DUP5 PUSH2 0x237 JUMP JUMPDEST SWAP3 SWAP2 POP POP JUMP JUMPDEST PUSH1 0x0 PUSH2 0x26C DUP3 PUSH2 0x1C7 JUMP JUMPDEST SWAP1 POP SWAP2 SWAP1 POP JUMP JUMPDEST PUSH2 0x27C DUP2 PUSH2 0x261 JUMP JUMPDEST DUP3 MSTORE POP POP JUMP JUMPDEST PUSH1 0x0 PUSH1 0x20 DUP3 ADD SWAP1 POP PUSH2 0x297 PUSH1 0x0 DUP4 ADD DUP5 PUSH2 0x273 JUMP JUMPDEST SWAP3 SWAP2 POP POP JUMP INVALID PUSH1 0x80 PUSH1 0x40 MSTORE CALLVALUE DUP1 ISZERO PUSH3 0x11 JUMPI PUSH1 0x0 DUP1 REVERT JUMPDEST POP PUSH1 0x40 MLOAD PUSH3 0x115E CODESIZE SUB DUP1 PUSH3 0x115E DUP4 CODECOPY DUP2 DUP2 ADD PUSH1 0x40 MSTORE DUP2 ADD SWAP1 PUSH3 0x37 SWAP2 SWAP1 PUSH3 0x215 JUMP JUMPDEST DUP1 PUSH1 0x0 DUP1 PUSH2 0x100 EXP DUP2 SLOAD DUP2 PUSH20 0xFFFFFFFFFFFFFFFFFFFFFFFFFFFFFFFFFFFFFFFF MUL NOT AND SWAP1 DUP4 PUSH20 0xFFFFFFFFFFFFFFFFFFFFFFFFFFFFFFFFFFFFFFFF AND MUL OR SWAP1 SSTORE POP PUSH1 0x1 PUSH1 0x4 PUSH1 0x0 PUSH2 0x100 EXP DUP2 SLOAD DUP2 PUSH1 0xFF MUL NOT AND SWAP1 DUP4 PUSH1 0x3 DUP2 GT ISZERO PUSH3 0xA0 JUMPI PUSH3 0x9F PUSH3 0x247 JUMP JUMPDEST JUMPDEST MUL OR SWAP1 SSTORE POP NUMBER PUSH1 0x1 DUP2 SWAP1 SSTORE POP PUSH2 0x9D80 PUSH1 0x1 SLOAD PUSH3 0xBE SWAP2 SWAP1 PUSH3 0x2AF JUMP JUMPDEST PUSH1 0x2 DUP2 SWAP1 SSTORE POP PUSH1 0x40 MLOAD DUP1 PUSH1 0x20 ADD PUSH1 0x40 MSTORE DUP1 PUSH1 0x0 DUP2 MSTORE POP PUSH1 0x3 SWAP1 DUP1 MLOAD SWAP1 PUSH1 0x20 ADD SWAP1 PUSH3 0xEB SWAP3 SWAP2 SWAP1 PUSH3 0xFB JUMP JUMPDEST POP PUSH1 0x64 PUSH1 0x8 DUP2 SWAP1 SSTORE POP POP PUSH3 0x370 JUMP JUMPDEST DUP3 DUP1 SLOAD PUSH3 0x109 SWAP1 PUSH3 0x33B JUMP JUMPDEST SWAP1 PUSH1 0x0 MSTORE PUSH1 0x20 PUSH1 0x0 KECCAK256 SWAP1 PUSH1 0x1F ADD PUSH1 0x20 SWAP1 DIV DUP2 ADD SWAP3 DUP3 PUSH3 0x12D JUMPI PUSH1 0x0 DUP6 SSTORE PUSH3 0x179 JUMP JUMPDEST DUP3 PUSH1 0x1F LT PUSH3 0x148 JUMPI DUP1 MLOAD PUSH1 0xFF NOT AND DUP4 DUP1 ADD OR DUP6 SSTORE PUSH3 0x179 JUMP JUMPDEST DUP3 DUP1 ADD PUSH1 0x1 ADD DUP6 SSTORE DUP3 ISZERO PUSH3 0x179 JUMPI SWAP2 DUP3 ADD JUMPDEST DUP3 DUP2 GT ISZERO PUSH3 0x178 JUMPI DUP3 MLOAD DUP3 SSTORE SWAP2 PUSH1 0x20 ADD SWAP2 SWAP1 PUSH1 0x1 ADD SWAP1 PUSH3 0x15B JUMP JUMPDEST JUMPDEST POP SWAP1 POP PUSH3 0x188 SWAP2 SWAP1 PUSH3 0x18C JUMP JUMPDEST POP SWAP1 JUMP JUMPDEST JUMPDEST DUP1 DUP3 GT ISZERO PUSH3 0x1A7 JUMPI PUSH1 0x0 DUP2 PUSH1 0x0 SWAP1 SSTORE POP PUSH1 0x1 ADD PUSH3 0x18D JUMP JUMPDEST POP SWAP1 JUMP JUMPDEST PUSH1 0x0 DUP1 REVERT JUMPDEST PUSH1 0x0 PUSH20 0xFFFFFFFFFFFFFFFFFFFFFFFFFFFFFFFFFFFFFFFF DUP3 AND SWAP1 POP SWAP2 SWAP1 POP JUMP JUMPDEST PUSH1 0x0 PUSH3 0x1DD DUP3 PUSH3 0x1B0 JUMP JUMPDEST SWAP1 POP SWAP2 SWAP1 POP JUMP JUMPDEST PUSH3 0x1EF DUP2 PUSH3 0x1D0 JUMP JUMPDEST DUP2 EQ PUSH3 0x1FB JUMPI PUSH1 0x0 DUP1 REVERT JUMPDEST POP JUMP JUMPDEST PUSH1 0x0 DUP2 MLOAD SWAP1 POP PUSH3 0x20F DUP2 PUSH3 0x1E4 JUMP JUMPDEST SWAP3 SWAP2 POP POP JUMP JUMPDEST PUSH1 0x0 PUSH1 0x20 DUP3 DUP5 SUB SLT ISZERO PUSH3 0x22E JUMPI PUSH3 0x22D PUSH3 0x1AB JUMP JUMPDEST JUMPDEST PUSH1 0x0 PUSH3 0x23E DUP5 DUP3 DUP6 ADD PUSH3 0x1FE JUMP JUMPDEST SWAP2 POP POP SWAP3 SWAP2 POP POP JUMP JUMPDEST PUSH32 0x4E487B7100000000000000000000000000000000000000000000000000000000 PUSH1 0x0 MSTORE PUSH1 0x21 PUSH1 0x4 MSTORE PUSH1 0x24 PUSH1 0x0 REVERT JUMPDEST PUSH1 0x0 DUP2 SWAP1 POP SWAP2 SWAP1 POP JUMP JUMPDEST PUSH32 0x4E487B7100000000000000000000000000000000000000000000000000000000 PUSH1 0x0 MSTORE PUSH1 0x11 PUSH1 0x4 MSTORE PUSH1 0x24 PUSH1 0x0 REVERT JUMPDEST PUSH1 0x0 PUSH3 0x2BC DUP3 PUSH3 0x276 JUMP JUMPDEST SWAP2 POP PUSH3 0x2C9 DUP4 PUSH3 0x276 JUMP JUMPDEST SWAP3 POP DUP3 PUSH32 0xFFFFFFFFFFFFFFFFFFFFFFFFFFFFFFFFFFFFFFFFFFFFFFFFFFFFFFFFFFFFFFFF SUB DUP3 GT ISZERO PUSH3 0x301 JUMPI PUSH3 0x300 PUSH3 0x280 JUMP JUMPDEST JUMPDEST DUP3 DUP3 ADD SWAP1 POP SWAP3 SWAP2 POP POP JUMP JUMPDEST PUSH32 0x4E487B7100000000000000000000000000000000000000000000000000000000 PUSH1 0x0 MSTORE PUSH1 0x22 PUSH1 0x4 MSTORE PUSH1 0x24 PUSH1 0x0 REVERT JUMPDEST PUSH1 0x0 PUSH1 0x2 DUP3 DIV SWAP1 POP PUSH1 0x1 DUP3 AND DUP1 PUSH3 0x354 JUMPI PUSH1 0x7F DUP3 AND SWAP2 POP JUMPDEST PUSH1 0x20 DUP3 LT DUP2 SUB PUSH3 0x36A JUMPI PUSH3 0x369 PUSH3 0x30C JUMP JUMPDEST JUMPDEST POP SWAP2 SWAP1 POP JUMP JUMPDEST PUSH2 0xDDE DUP1 PUSH3 0x380 PUSH1 0x0 CODECOPY PUSH1 0x0 RETURN INVALID PUSH1 0x80 PUSH1 0x40 MSTORE PUSH1 0x4 CALLDATASIZE LT PUSH2 0x9C JUMPI PUSH1 0x0 CALLDATALOAD PUSH1 0xE0 SHR DUP1 PUSH4 0x8FA8B790 GT PUSH2 0x64 JUMPI DUP1 PUSH4 0x8FA8B790 EQ PUSH2 0x18A JUMPI DUP1 PUSH4 0x91F90157 EQ PUSH2 0x1A1 JUMPI DUP1 PUSH4 0xC623674F EQ PUSH2 0x1CC JUMPI DUP1 PUSH4 0xECFC7ECC EQ PUSH2 0x1F7 JUMPI DUP1 PUSH4 0xF5B56C56 EQ PUSH2 0x201 JUMPI DUP1 PUSH4 0xF77282AB EQ PUSH2 0x22C JUMPI PUSH2 0x9C JUMP JUMPDEST DUP1 PUSH4 0x83C6323 EQ PUSH2 0xA1 JUMPI DUP1 PUSH4 0x48CD4CB1 EQ PUSH2 0xCC JUMPI DUP1 PUSH4 0x62EA82DB EQ PUSH2 0xF7 JUMPI DUP1 PUSH4 0x7FB45099 EQ PUSH2 0x134 JUMPI DUP1 PUSH4 0x8DA5CB5B EQ PUSH2 0x15F JUMPI JUMPDEST PUSH1 0x0 DUP1 REVERT JUMPDEST CALLVALUE DUP1 ISZERO PUSH2 0xAD JUMPI PUSH1 0x0 DUP1 REVERT JUMPDEST POP PUSH2 0xB6 PUSH2 0x243 JUMP JUMPDEST PUSH1 0x40 MLOAD PUSH2 0xC3 SWAP2 SWAP1 PUSH2 0xA5B JUMP JUMPDEST PUSH1 0x40 MLOAD DUP1 SWAP2 SUB SWAP1 RETURN JUMPDEST CALLVALUE DUP1 ISZERO PUSH2 0xD8 JUMPI PUSH1 0x0 DUP1 REVERT JUMPDEST POP PUSH2 0xE1 PUSH2 0x249 JUMP JUMPDEST PUSH1 0x40 MLOAD PUSH2 0xEE SWAP2 SWAP1 PUSH2 0xA5B JUMP JUMPDEST PUSH1 0x40 MLOAD DUP1 SWAP2 SUB SWAP1 RETURN JUMPDEST CALLVALUE DUP1 ISZERO PUSH2 0x103 JUMPI PUSH1 0x0 DUP1 REVERT JUMPDEST POP PUSH2 0x11E PUSH1 0x4 DUP1 CALLDATASIZE SUB DUP2 ADD SWAP1 PUSH2 0x119 SWAP2 SWAP1 PUSH2 0xAD9 JUMP JUMPDEST PUSH2 0x24F JUMP JUMPDEST PUSH1 0x40 MLOAD PUSH2 0x12B SWAP2 SWAP1 PUSH2 0xA5B JUMP JUMPDEST PUSH1 0x40 MLOAD DUP1 SWAP2 SUB SWAP1 RETURN JUMPDEST CALLVALUE DUP1 ISZERO PUSH2 0x140 JUMPI PUSH1 0x0 DUP1 REVERT JUMPDEST POP PUSH2 0x149 PUSH2 0x267 JUMP JUMPDEST PUSH1 0x40 MLOAD PUSH2 0x156 SWAP2 SWAP1 PUSH2 0xB7D JUMP JUMPDEST PUSH1 0x40 MLOAD DUP1 SWAP2 SUB SWAP1 RETURN JUMPDEST CALLVALUE DUP1 ISZERO PUSH2 0x16B JUMPI PUSH1 0x0 DUP1 REVERT JUMPDEST POP PUSH2 0x174 PUSH2 0x27A JUMP JUMPDEST PUSH1 0x40 MLOAD PUSH2 0x181 SWAP2 SWAP1 PUSH2 0xBB9 JUMP JUMPDEST PUSH1 0x40 MLOAD DUP1 SWAP2 SUB SWAP1 RETURN JUMPDEST CALLVALUE DUP1 ISZERO PUSH2 0x196 JUMPI PUSH1 0x0 DUP1 REVERT JUMPDEST POP PUSH2 0x19F PUSH2 0x29E JUMP JUMPDEST STOP JUMPDEST CALLVALUE DUP1 ISZERO PUSH2 0x1AD JUMPI PUSH1 0x0 DUP1 REVERT JUMPDEST POP PUSH2 0x1B6 PUSH2 0x323 JUMP JUMPDEST PUSH1 0x40 MLOAD PUSH2 0x1C3 SWAP2 SWAP1 PUSH2 0xBB9 JUMP JUMPDEST PUSH1 0x40 MLOAD DUP1 SWAP2 SUB SWAP1 RETURN JUMPDEST CALLVALUE DUP1 ISZERO PUSH2 0x1D8 JUMPI PUSH1 0x0 DUP1 REVERT JUMPDEST POP PUSH2 0x1E1 PUSH2 0x349 JUMP JUMPDEST PUSH1 0x40 MLOAD PUSH2 0x1EE SWAP2 SWAP1 PUSH2 0xC6D JUMP JUMPDEST PUSH1 0x40 MLOAD DUP1 SWAP2 SUB SWAP1 RETURN JUMPDEST PUSH2 0x1FF PUSH2 0x3D7 JUMP JUMPDEST STOP JUMPDEST CALLVALUE DUP1 ISZERO PUSH2 0x20D JUMPI PUSH1 0x0 DUP1 REVERT JUMPDEST POP PUSH2 0x216 PUSH2 0x6EA JUMP JUMPDEST PUSH1 0x40 MLOAD PUSH2 0x223 SWAP2 SWAP1 PUSH2 0xA5B JUMP JUMPDEST PUSH1 0x40 MLOAD DUP1 SWAP2 SUB SWAP1 RETURN JUMPDEST CALLVALUE DUP1 ISZERO PUSH2 0x238 JUMPI PUSH1 0x0 DUP1 REVERT JUMPDEST POP PUSH2 0x241 PUSH2 0x6F0 JUMP JUMPDEST STOP JUMPDEST PUSH1 0x2 SLOAD DUP2 JUMP JUMPDEST PUSH1 0x1 SLOAD DUP2 JUMP JUMPDEST PUSH1 0x7 PUSH1 0x20 MSTORE DUP1 PUSH1 0x0 MSTORE PUSH1 0x40 PUSH1 0x0 KECCAK256 PUSH1 0x0 SWAP2 POP SWAP1 POP SLOAD DUP2 JUMP JUMPDEST PUSH1 0x4 PUSH1 0x0 SWAP1 SLOAD SWAP1 PUSH2 0x100 EXP SWAP1 DIV PUSH1 0xFF AND DUP2 JUMP JUMPDEST PUSH1 0x0 DUP1 SLOAD SWAP1 PUSH2 0x100 EXP SWAP1 DIV PUSH20 0xFFFFFFFFFFFFFFFFFFFFFFFFFFFFFFFFFFFFFFFF AND DUP2 JUMP JUMPDEST PUSH1 0x0 DUP1 SLOAD SWAP1 PUSH2 0x100 EXP SWAP1 DIV PUSH20 0xFFFFFFFFFFFFFFFFFFFFFFFFFFFFFFFFFFFFFFFF AND PUSH20 0xFFFFFFFFFFFFFFFFFFFFFFFFFFFFFFFFFFFFFFFF AND CALLER PUSH20 0xFFFFFFFFFFFFFFFFFFFFFFFFFFFFFFFFFFFFFFFF AND EQ PUSH2 0x2F6 JUMPI PUSH1 0x0 DUP1 REVERT JUMPDEST PUSH1 0x3 PUSH1 0x4 PUSH1 0x0 PUSH2 0x100 EXP DUP2 SLOAD DUP2 PUSH1 0xFF MUL NOT AND SWAP1 DUP4 PUSH1 0x3 DUP2 GT ISZERO PUSH2 0x31C JUMPI PUSH2 0x31B PUSH2 0xB06 JUMP JUMPDEST JUMPDEST MUL OR SWAP1 SSTORE POP JUMP JUMPDEST PUSH1 0x6 PUSH1 0x0 SWAP1 SLOAD SWAP1 PUSH2 0x100 EXP SWAP1 DIV PUSH20 0xFFFFFFFFFFFFFFFFFFFFFFFFFFFFFFFFFFFFFFFF AND DUP2 JUMP JUMPDEST PUSH1 0x3 DUP1 SLOAD PUSH2 0x356 SWAP1 PUSH2 0xCBE JUMP JUMPDEST DUP1 PUSH1 0x1F ADD PUSH1 0x20 DUP1 SWAP2 DIV MUL PUSH1 0x20 ADD PUSH1 0x40 MLOAD SWAP1 DUP2 ADD PUSH1 0x40 MSTORE DUP1 SWAP3 SWAP2 SWAP1 DUP2 DUP2 MSTORE PUSH1 0x20 ADD DUP3 DUP1 SLOAD PUSH2 0x382 SWAP1 PUSH2 0xCBE JUMP JUMPDEST DUP1 ISZERO PUSH2 0x3CF JUMPI DUP1 PUSH1 0x1F LT PUSH2 0x3A4 JUMPI PUSH2 0x100 DUP1 DUP4 SLOAD DIV MUL DUP4 MSTORE SWAP2 PUSH1 0x20 ADD SWAP2 PUSH2 0x3CF JUMP JUMPDEST DUP3 ADD SWAP2 SWAP1 PUSH1 0x0 MSTORE PUSH1 0x20 PUSH1 0x0 KECCAK256 SWAP1 JUMPDEST DUP2 SLOAD DUP2 MSTORE SWAP1 PUSH1 0x1 ADD SWAP1 PUSH1 0x20 ADD DUP1 DUP4 GT PUSH2 0x3B2 JUMPI DUP3 SWAP1 SUB PUSH1 0x1F AND DUP3 ADD SWAP2 JUMPDEST POP POP POP POP POP DUP2 JUMP JUMPDEST PUSH1 0x0 DUP1 SLOAD SWAP1 PUSH2 0x100 EXP SWAP1 DIV PUSH20 0xFFFFFFFFFFFFFFFFFFFFFFFFFFFFFFFFFFFFFFFF AND PUSH20 0xFFFFFFFFFFFFFFFFFFFFFFFFFFFFFFFFFFFFFFFF AND CALLER PUSH20 0xFFFFFFFFFFFFFFFFFFFFFFFFFFFFFFFFFFFFFFFF AND SUB PUSH2 0x42F JUMPI PUSH1 0x0 DUP1 REVERT JUMPDEST PUSH1 0x1 SLOAD NUMBER LT ISZERO PUSH2 0x43E JUMPI PUSH1 0x0 DUP1 REVERT JUMPDEST PUSH1 0x2 SLOAD NUMBER GT ISZERO PUSH2 0x44D JUMPI PUSH1 0x0 DUP1 REVERT JUMPDEST PUSH1 0x1 PUSH1 0x3 DUP2 GT ISZERO PUSH2 0x461 JUMPI PUSH2 0x460 PUSH2 0xB06 JUMP JUMPDEST JUMPDEST PUSH1 0x4 PUSH1 0x0 SWAP1 SLOAD SWAP1 PUSH2 0x100 EXP SWAP1 DIV PUSH1 0xFF AND PUSH1 0x3 DUP2 GT ISZERO PUSH2 0x483 JUMPI PUSH2 0x482 PUSH2 0xB06 JUMP JUMPDEST JUMPDEST EQ PUSH2 0x48D JUMPI PUSH1 0x0 DUP1 REVERT JUMPDEST PUSH1 0x64 CALLVALUE LT ISZERO PUSH2 0x49B JUMPI PUSH1 0x0 DUP1 REVERT JUMPDEST PUSH1 0x0 CALLVALUE PUSH1 0x7 PUSH1 0x0 CALLER PUSH20 0xFFFFFFFFFFFFFFFFFFFFFFFFFFFFFFFFFFFFFFFF AND PUSH20 0xFFFFFFFFFFFFFFFFFFFFFFFFFFFFFFFFFFFFFFFF AND DUP2 MSTORE PUSH1 0x20 ADD SWAP1 DUP2 MSTORE PUSH1 0x20 ADD PUSH1 0x0 KECCAK256 SLOAD PUSH2 0x4E8 SWAP2 SWAP1 PUSH2 0xD1E JUMP JUMPDEST SWAP1 POP PUSH1 0x5 SLOAD DUP2 GT PUSH2 0x4F8 JUMPI PUSH1 0x0 DUP1 REVERT JUMPDEST DUP1 PUSH1 0x7 PUSH1 0x0 CALLER PUSH20 0xFFFFFFFFFFFFFFFFFFFFFFFFFFFFFFFFFFFFFFFF AND PUSH20 0xFFFFFFFFFFFFFFFFFFFFFFFFFFFFFFFFFFFFFFFF AND DUP2 MSTORE PUSH1 0x20 ADD SWAP1 DUP2 MSTORE PUSH1 0x20 ADD PUSH1 0x0 KECCAK256 DUP2 SWAP1 SSTORE POP PUSH1 0x7 PUSH1 0x0 PUSH1 0x6 PUSH1 0x0 SWAP1 SLOAD SWAP1 PUSH2 0x100 EXP SWAP1 DIV PUSH20 0xFFFFFFFFFFFFFFFFFFFFFFFFFFFFFFFFFFFFFFFF AND PUSH20 0xFFFFFFFFFFFFFFFFFFFFFFFFFFFFFFFFFFFFFFFF AND PUSH20 0xFFFFFFFFFFFFFFFFFFFFFFFFFFFFFFFFFFFFFFFF AND DUP2 MSTORE PUSH1 0x20 ADD SWAP1 DUP2 MSTORE PUSH1 0x20 ADD PUSH1 0x0 KECCAK256 SLOAD DUP2 GT PUSH2 0x627 JUMPI PUSH2 0x61C PUSH1 0x8 SLOAD DUP3 PUSH2 0x5B5 SWAP2 SWAP1 PUSH2 0xD1E JUMP JUMPDEST PUSH1 0x7 PUSH1 0x0 PUSH1 0x6 PUSH1 0x0 SWAP1 SLOAD SWAP1 PUSH2 0x100 EXP SWAP1 DIV PUSH20 0xFFFFFFFFFFFFFFFFFFFFFFFFFFFFFFFFFFFFFFFF AND PUSH20 0xFFFFFFFFFFFFFFFFFFFFFFFFFFFFFFFFFFFFFFFF AND PUSH20 0xFFFFFFFFFFFFFFFFFFFFFFFFFFFFFFFFFFFFFFFF AND DUP2 MSTORE PUSH1 0x20 ADD SWAP1 DUP2 MSTORE PUSH1 0x20 ADD PUSH1 0x0 KECCAK256 SLOAD PUSH2 0xA27 JUMP JUMPDEST PUSH1 0x5 DUP2 SWAP1 SSTORE POP PUSH2 0x6E7 JUMP JUMPDEST PUSH2 0x69F DUP2 PUSH1 0x8 SLOAD PUSH1 0x7 PUSH1 0x0 PUSH1 0x6 PUSH1 0x0 SWAP1 SLOAD SWAP1 PUSH2 0x100 EXP SWAP1 DIV PUSH20 0xFFFFFFFFFFFFFFFFFFFFFFFFFFFFFFFFFFFFFFFF AND PUSH20 0xFFFFFFFFFFFFFFFFFFFFFFFFFFFFFFFFFFFFFFFF AND PUSH20 0xFFFFFFFFFFFFFFFFFFFFFFFFFFFFFFFFFFFFFFFF AND DUP2 MSTORE PUSH1 0x20 ADD SWAP1 DUP2 MSTORE PUSH1 0x20 ADD PUSH1 0x0 KECCAK256 SLOAD PUSH2 0x69A SWAP2 SWAP1 PUSH2 0xD1E JUMP JUMPDEST PUSH2 0xA27 JUMP JUMPDEST PUSH1 0x5 DUP2 SWAP1 SSTORE POP CALLER PUSH1 0x6 PUSH1 0x0 PUSH2 0x100 EXP DUP2 SLOAD DUP2 PUSH20 0xFFFFFFFFFFFFFFFFFFFFFFFFFFFFFFFFFFFFFFFF MUL NOT AND SWAP1 DUP4 PUSH20 0xFFFFFFFFFFFFFFFFFFFFFFFFFFFFFFFFFFFFFFFF AND MUL OR SWAP1 SSTORE POP JUMPDEST POP JUMP JUMPDEST PUSH1 0x5 SLOAD DUP2 JUMP JUMPDEST PUSH1 0x3 DUP1 DUP2 GT ISZERO PUSH2 0x703 JUMPI PUSH2 0x702 PUSH2 0xB06 JUMP JUMPDEST JUMPDEST PUSH1 0x4 PUSH1 0x0 SWAP1 SLOAD SWAP1 PUSH2 0x100 EXP SWAP1 DIV PUSH1 0xFF AND PUSH1 0x3 DUP2 GT ISZERO PUSH2 0x725 JUMPI PUSH2 0x724 PUSH2 0xB06 JUMP JUMPDEST JUMPDEST EQ DUP1 PUSH2 0x732 JUMPI POP PUSH1 0x2 SLOAD NUMBER GT JUMPDEST PUSH2 0x73B JUMPI PUSH1 0x0 DUP1 REVERT JUMPDEST PUSH1 0x0 DUP1 SLOAD SWAP1 PUSH2 0x100 EXP SWAP1 DIV PUSH20 0xFFFFFFFFFFFFFFFFFFFFFFFFFFFFFFFFFFFFFFFF AND PUSH20 0xFFFFFFFFFFFFFFFFFFFFFFFFFFFFFFFFFFFFFFFF AND CALLER PUSH20 0xFFFFFFFFFFFFFFFFFFFFFFFFFFFFFFFFFFFFFFFF AND EQ DUP1 PUSH2 0x7D4 JUMPI POP PUSH1 0x0 PUSH1 0x7 PUSH1 0x0 CALLER PUSH20 0xFFFFFFFFFFFFFFFFFFFFFFFFFFFFFFFFFFFFFFFF AND PUSH20 0xFFFFFFFFFFFFFFFFFFFFFFFFFFFFFFFFFFFFFFFF AND DUP2 MSTORE PUSH1 0x20 ADD SWAP1 DUP2 MSTORE PUSH1 0x20 ADD PUSH1 0x0 KECCAK256 SLOAD GT JUMPDEST PUSH2 0x7DD JUMPI PUSH1 0x0 DUP1 REVERT JUMPDEST PUSH1 0x0 DUP1 PUSH1 0x0 DUP1 SLOAD SWAP1 PUSH2 0x100 EXP SWAP1 DIV PUSH20 0xFFFFFFFFFFFFFFFFFFFFFFFFFFFFFFFFFFFFFFFF AND PUSH20 0xFFFFFFFFFFFFFFFFFFFFFFFFFFFFFFFFFFFFFFFF AND CALLER PUSH20 0xFFFFFFFFFFFFFFFFFFFFFFFFFFFFFFFFFFFFFFFF AND SUB PUSH2 0x860 JUMPI PUSH1 0x0 DUP1 SLOAD SWAP1 PUSH2 0x100 EXP SWAP1 DIV PUSH20 0xFFFFFFFFFFFFFFFFFFFFFFFFFFFFFFFFFFFFFFFF AND SWAP2 POP PUSH1 0x5 SLOAD SWAP1 POP PUSH2 0x997 JUMP JUMPDEST PUSH1 0x6 PUSH1 0x0 SWAP1 SLOAD SWAP1 PUSH2 0x100 EXP SWAP1 DIV PUSH20 0xFFFFFFFFFFFFFFFFFFFFFFFFFFFFFFFFFFFFFFFF AND PUSH20 0xFFFFFFFFFFFFFFFFFFFFFFFFFFFFFFFFFFFFFFFF AND CALLER PUSH20 0xFFFFFFFFFFFFFFFFFFFFFFFFFFFFFFFFFFFFFFFF AND SUB PUSH2 0x950 JUMPI PUSH1 0x6 PUSH1 0x0 SWAP1 SLOAD SWAP1 PUSH2 0x100 EXP SWAP1 DIV PUSH20 0xFFFFFFFFFFFFFFFFFFFFFFFFFFFFFFFFFFFFFFFF AND SWAP2 POP PUSH1 0x5 SLOAD PUSH1 0x7 PUSH1 0x0 PUSH1 0x6 PUSH1 0x0 SWAP1 SLOAD SWAP1 PUSH2 0x100 EXP SWAP1 DIV PUSH20 0xFFFFFFFFFFFFFFFFFFFFFFFFFFFFFFFFFFFFFFFF AND PUSH20 0xFFFFFFFFFFFFFFFFFFFFFFFFFFFFFFFFFFFFFFFF AND PUSH20 0xFFFFFFFFFFFFFFFFFFFFFFFFFFFFFFFFFFFFFFFF AND DUP2 MSTORE PUSH1 0x20 ADD SWAP1 DUP2 MSTORE PUSH1 0x20 ADD PUSH1 0x0 KECCAK256 SLOAD PUSH2 0x949 SWAP2 SWAP1 PUSH2 0xD74 JUMP JUMPDEST SWAP1 POP PUSH2 0x996 JUMP JUMPDEST CALLER SWAP2 POP PUSH1 0x7 PUSH1 0x0 CALLER PUSH20 0xFFFFFFFFFFFFFFFFFFFFFFFFFFFFFFFFFFFFFFFF AND PUSH20 0xFFFFFFFFFFFFFFFFFFFFFFFFFFFFFFFFFFFFFFFF AND DUP2 MSTORE PUSH1 0x20 ADD SWAP1 DUP2 MSTORE PUSH1 0x20 ADD PUSH1 0x0 KECCAK256 SLOAD SWAP1 POP JUMPDEST JUMPDEST PUSH1 0x0 PUSH1 0x7 PUSH1 0x0 DUP5 PUSH20 0xFFFFFFFFFFFFFFFFFFFFFFFFFFFFFFFFFFFFFFFF AND PUSH20 0xFFFFFFFFFFFFFFFFFFFFFFFFFFFFFFFFFFFFFFFF AND DUP2 MSTORE PUSH1 0x20 ADD SWAP1 DUP2 MSTORE PUSH1 0x20 ADD PUSH1 0x0 KECCAK256 DUP2 SWAP1 SSTORE POP DUP2 PUSH20 0xFFFFFFFFFFFFFFFFFFFFFFFFFFFFFFFFFFFFFFFF AND PUSH2 0x8FC DUP3 SWAP1 DUP2 ISZERO MUL SWAP1 PUSH1 0x40 MLOAD PUSH1 0x0 PUSH1 0x40 MLOAD DUP1 DUP4 SUB DUP2 DUP6 DUP9 DUP9 CALL SWAP4 POP POP POP POP ISZERO DUP1 ISZERO PUSH2 0xA22 JUMPI RETURNDATASIZE PUSH1 0x0 DUP1 RETURNDATACOPY RETURNDATASIZE PUSH1 0x0 REVERT JUMPDEST POP POP POP JUMP JUMPDEST PUSH1 0x0 DUP2 DUP4 GT PUSH2 0xA38 JUMPI DUP3 SWAP1 POP PUSH2 0xA3C JUMP JUMPDEST DUP2 SWAP1 POP JUMPDEST SWAP3 SWAP2 POP POP JUMP JUMPDEST PUSH1 0x0 DUP2 SWAP1 POP SWAP2 SWAP1 POP JUMP JUMPDEST PUSH2 0xA55 DUP2 PUSH2 0xA42 JUMP JUMPDEST DUP3 MSTORE POP POP JUMP JUMPDEST PUSH1 0x0 PUSH1 0x20 DUP3 ADD SWAP1 POP PUSH2 0xA70 PUSH1 0x0 DUP4 ADD DUP5 PUSH2 0xA4C JUMP JUMPDEST SWAP3 SWAP2 POP POP JUMP JUMPDEST PUSH1 0x0 DUP1 REVERT JUMPDEST PUSH1 0x0 PUSH20 0xFFFFFFFFFFFFFFFFFFFFFFFFFFFFFFFFFFFFFFFF DUP3 AND SWAP1 POP SWAP2 SWAP1 POP JUMP JUMPDEST PUSH1 0x0 PUSH2 0xAA6 DUP3 PUSH2 0xA7B JUMP JUMPDEST SWAP1 POP SWAP2 SWAP1 POP JUMP JUMPDEST PUSH2 0xAB6 DUP2 PUSH2 0xA9B JUMP JUMPDEST DUP2 EQ PUSH2 0xAC1 JUMPI PUSH1 0x0 DUP1 REVERT JUMPDEST POP JUMP JUMPDEST PUSH1 0x0 DUP2 CALLDATALOAD SWAP1 POP PUSH2 0xAD3 DUP2 PUSH2 0xAAD JUMP JUMPDEST SWAP3 SWAP2 POP POP JUMP JUMPDEST PUSH1 0x0 PUSH1 0x20 DUP3 DUP5 SUB SLT ISZERO PUSH2 0xAEF JUMPI PUSH2 0xAEE PUSH2 0xA76 JUMP JUMPDEST JUMPDEST PUSH1 0x0 PUSH2 0xAFD DUP5 DUP3 DUP6 ADD PUSH2 0xAC4 JUMP JUMPDEST SWAP2 POP POP SWAP3 SWAP2 POP POP JUMP JUMPDEST PUSH32 0x4E487B7100000000000000000000000000000000000000000000000000000000 PUSH1 0x0 MSTORE PUSH1 0x21 PUSH1 0x4 MSTORE PUSH1 0x24 PUSH1 0x0 REVERT JUMPDEST PUSH1 0x4 DUP2 LT PUSH2 0xB46 JUMPI PUSH2 0xB45 PUSH2 0xB06 JUMP JUMPDEST JUMPDEST POP JUMP JUMPDEST PUSH1 0x0 DUP2 SWAP1 POP PUSH2 0xB57 DUP3 PUSH2 0xB35 JUMP JUMPDEST SWAP2 SWAP1 POP JUMP JUMPDEST PUSH1 0x0 PUSH2 0xB67 DUP3 PUSH2 0xB49 JUMP JUMPDEST SWAP1 POP SWAP2 SWAP1 POP JUMP JUMPDEST PUSH2 0xB77 DUP2 PUSH2 0xB5C JUMP JUMPDEST DUP3 MSTORE POP POP JUMP JUMPDEST PUSH1 0x0 PUSH1 0x20 DUP3 ADD SWAP1 POP PUSH2 0xB92 PUSH1 0x0 DUP4 ADD DUP5 PUSH2 0xB6E JUMP JUMPDEST SWAP3 SWAP2 POP POP JUMP JUMPDEST PUSH1 0x0 PUSH2 0xBA3 DUP3 PUSH2 0xA7B JUMP JUMPDEST SWAP1 POP SWAP2 SWAP1 POP JUMP JUMPDEST PUSH2 0xBB3 DUP2 PUSH2 0xB98 JUMP JUMPDEST DUP3 MSTORE POP POP JUMP JUMPDEST PUSH1 0x0 PUSH1 0x20 DUP3 ADD SWAP1 POP PUSH2 0xBCE PUSH1 0x0 DUP4 ADD DUP5 PUSH2 0xBAA JUMP JUMPDEST SWAP3 SWAP2 POP POP JUMP JUMPDEST PUSH1 0x0 DUP2 MLOAD SWAP1 POP SWAP2 SWAP1 POP JUMP JUMPDEST PUSH1 0x0 DUP3 DUP3 MSTORE PUSH1 0x20 DUP3 ADD SWAP1 POP SWAP3 SWAP2 POP POP JUMP JUMPDEST PUSH1 0x0 JUMPDEST DUP4 DUP2 LT ISZERO PUSH2 0xC0E JUMPI DUP1 DUP3 ADD MLOAD DUP2 DUP5 ADD MSTORE PUSH1 0x20 DUP2 ADD SWAP1 POP PUSH2 0xBF3 JUMP JUMPDEST DUP4 DUP2 GT ISZERO PUSH2 0xC1D JUMPI PUSH1 0x0 DUP5 DUP5 ADD MSTORE JUMPDEST POP POP POP POP JUMP JUMPDEST PUSH1 0x0 PUSH1 0x1F NOT PUSH1 0x1F DUP4 ADD AND SWAP1 POP SWAP2 SWAP1 POP JUMP JUMPDEST PUSH1 0x0 PUSH2 0xC3F DUP3 PUSH2 0xBD4 JUMP JUMPDEST PUSH2 0xC49 DUP2 DUP6 PUSH2 0xBDF JUMP JUMPDEST SWAP4 POP PUSH2 0xC59 DUP2 DUP6 PUSH1 0x20 DUP7 ADD PUSH2 0xBF0 JUMP JUMPDEST PUSH2 0xC62 DUP2 PUSH2 0xC23 JUMP JUMPDEST DUP5 ADD SWAP2 POP POP SWAP3 SWAP2 POP POP JUMP JUMPDEST PUSH1 0x0 PUSH1 0x20 DUP3 ADD SWAP1 POP DUP2 DUP2 SUB PUSH1 0x0 DUP4 ADD MSTORE PUSH2 0xC87 DUP2 DUP5 PUSH2 0xC34 JUMP JUMPDEST SWAP1 POP SWAP3 SWAP2 POP POP JUMP JUMPDEST PUSH32 0x4E487B7100000000000000000000000000000000000000000000000000000000 PUSH1 0x0 MSTORE PUSH1 0x22 PUSH1 0x4 MSTORE PUSH1 0x24 PUSH1 0x0 REVERT JUMPDEST PUSH1 0x0 PUSH1 0x2 DUP3 DIV SWAP1 POP PUSH1 0x1 DUP3 AND DUP1 PUSH2 0xCD6 JUMPI PUSH1 0x7F DUP3 AND SWAP2 POP JUMPDEST PUSH1 0x20 DUP3 LT DUP2 SUB PUSH2 0xCE9 JUMPI PUSH2 0xCE8 PUSH2 0xC8F JUMP JUMPDEST JUMPDEST POP SWAP2 SWAP1 POP JUMP JUMPDEST PUSH32 0x4E487B7100000000000000000000000000000000000000000000000000000000 PUSH1 0x0 MSTORE PUSH1 0x11 PUSH1 0x4 MSTORE PUSH1 0x24 PUSH1 0x0 REVERT JUMPDEST PUSH1 0x0 PUSH2 0xD29 DUP3 PUSH2 0xA42 JUMP JUMPDEST SWAP2 POP PUSH2 0xD34 DUP4 PUSH2 0xA42 JUMP JUMPDEST SWAP3 POP DUP3 PUSH32 0xFFFFFFFFFFFFFFFFFFFFFFFFFFFFFFFFFFFFFFFFFFFFFFFFFFFFFFFFFFFFFFFF SUB DUP3 GT ISZERO PUSH2 0xD69 JUMPI PUSH2 0xD68 PUSH2 0xCEF JUMP JUMPDEST JUMPDEST DUP3 DUP3 ADD SWAP1 POP SWAP3 SWAP2 POP POP JUMP JUMPDEST PUSH1 0x0 PUSH2 0xD7F DUP3 PUSH2 0xA42 JUMP JUMPDEST SWAP2 POP PUSH2 0xD8A DUP4 PUSH2 0xA42 JUMP JUMPDEST SWAP3 POP DUP3 DUP3 LT ISZERO PUSH2 0xD9D JUMPI PUSH2 0xD9C PUSH2 0xCEF JUMP JUMPDEST JUMPDEST DUP3 DUP3 SUB SWAP1 POP SWAP3 SWAP2 POP POP JUMP INVALID LOG2 PUSH5 0x6970667358 0x22 SLT KECCAK256 EXP 0xB2 0x23 0xEB 0xCA MUL 0xEC 0xDD 0xEF 0x21 KECCAK256 JUMPI 0x26 0xBC SGT PUSH6 0x60E870137E55 SWAP1 0xD3 0xEE 0x2C SSTORE DUP4 0xDC LOG3 0x4C SWAP5 PUSH5 0x736F6C6343 STOP ADDMOD 0xE STOP CALLER LOG2 PUSH5 0x6970667358 0x22 SLT KECCAK256 PUSH4 0x5C6E01D9 SIGNEXTEND 0xEA 0xDE PUSH18 0x60A275DE9F919880757062D4B7A6437E9204 MSTORE8 SWAP6 OR CREATE2 0xC7 PUSH5 0x736F6C6343 STOP ADDMOD 0xE STOP CALLER "
				},
				"gasEstimates": {
					"creation": {
						"codeDepositCost": "1033800",
						"executionCost": "1074",
						"totalCost": "1034874"
					},
					"external": {
						"auctions(uint256)": "infinite",
						"createAuction()": "infinite"
					}
				},
				"methodIdentifiers": {
					"auctions(uint256)": "571a26a0",
					"createAuction()": "f5811447"
				}
			},
			"storageLayout": {
				"storage": [
					{
						"astId": 5,
						"contract": "contracts/Auction.sol:auctionCreator",
						"label": "auctions",
						"offset": 0,
						"slot": "0",
						"type": "t_array(t_contract(Auction)347)dyn_storage"
					}
				],
				"types": {
					"t_array(t_contract(Auction)347)dyn_storage": {
						"base": "t_contract(Auction)347",
						"encoding": "dynamic_array",
						"label": "contract Auction[]",
						"numberOfBytes": "32"
					},
					"t_contract(Auction)347": {
						"encoding": "inplace",
						"label": "contract Auction",
						"numberOfBytes": "20"
					}
				}
			},
			"userdoc": {
				"kind": "user",
				"methods": {},
				"version": 1
			}
		}
	}
}